:100000000C9462000C948A000C948A000C948A0070
:100010000C948A000C948A000C948A000C948A0038
:100020000C948A000C948A000C948A000C948A0028
:100030000C948A000C948A000C948A000C948A0018
:100040000C9424010C948A000C948A000C948A006D
:100050000C948A000C948A000C948A000C948A00F8
:100060000C948A000C948A000000000024002700F1
:100070002A0000000000250028002B0000000000DE
:1000800023002600290004040404040404040202DA
:100090000202020203030303030301020408102007
:1000A0004080010204081020010204081020000012
:1000B0000007000201000003040600000000000029
:1000C00000008C0011241FBECFEFD8E0DEBFCDBFF3
:1000D00011E0A0E0B1E0E8E7F8E002C005900D9281
:1000E000A434B107D9F711E0A4E4B1E001C01D9236
:1000F000A236B107E1F710E0C4ECD0E004C02297CB
:10010000FE010E943604C23CD107C9F70E941501C6
:100110000C943A040C940000CF92EF920F9384E475
:1001200091E067E046E025E004E053E0E52E32E0B0
:10013000C32E0E9468030F91EF90CF9008950F9304
:100140001F9304E411E0C80160E040E00E947B02DC
:10015000C80160E071E00E941201C80160E043E064
:100160000E947B02C80164E171E00E941201C80193
:1001700060E041E00E947B02C80164E271E00E94FD
:1001800012011F910F91089584E491E064E144E02D
:1001900020E00E94B2020895CF92DF92EF92FF9288
:1001A0000F931F93CF93DF937C016B018A01C0E013
:1001B000D0E00FC0D6016D916D01D701ED91FC919A
:1001C0000190F081E02DC7010995C80FD91F01509A
:1001D00010400115110571F7CE01DF91CF911F91EC
:1001E0000F91FF90EF90DF90CF900895CF93DF9322
:1001F000EC016115710519F420E030E00FC0DB015E
:100200000D900020E9F71197A61BB70BE881F98143
:100210000280F381E02DAD0109959C01C901DF91B8
:10022000CF9108950E94F6000895CF93DF930E9426
:1002300076010E94C400C0E0D0E00E949F00209799
:10024000E1F30E940000F9CF1F920F920FB60F92B8
:1002500011242F933F938F939F93AF93BF938091DC
:100260005D0190915E01A0915F01B09160013091BC
:1002700061010196A11DB11D232F2D5F2D3720F0A7
:100280002D570196A11DB11D2093610180935D0141
:1002900090935E01A0935F01B0936001809159013A
:1002A00090915A01A0915B01B0915C010196A11D52
:1002B000B11D8093590190935A01A0935B01B093B3
:1002C0005C01BF91AF919F918F913F912F910F90C2
:1002D0000FBE0F901F901895019739F0880F991F46
:1002E000880F991F02970197F1F70895789484B5C4
:1002F000826084BD84B5816084BD85B5826085BD22
:1003000085B5816085BDEEE6F0E080818160808307
:10031000E1E8F0E0108280818260808380818160EA
:100320008083E0E8F0E0808181608083E1EBF0E0B1
:10033000808184608083E0EBF0E080818160808355
:10034000EAE7F0E08081846080838081826080833E
:100350008081816080838081806880831092C10069
:1003600008950F931F938C01FC01868160E00E9429
:10037000E00381E090E00E946C01F801868161E079
:100380000E94E00381E090E00E946C01F801868108
:1003900060E00E94E00384E690E00E946C011F91FF
:1003A0000F910895CF92DF92EF92FF920F931F93D8
:1003B000CF93DF93D82EC92E282F392FC9018C0156
:1003C000C0E0D0E0E62EFF24F801878161E00E94C2
:1003D000A103B7010C2E02C0759567950A94E2F748
:1003E0006170F80187810E94E00321960F5F1F4F23
:1003F000C830D10549F78D2D9C2D0E94B101DF91A8
:10040000CF911F910F91FF90EF90DF90CF900895C3
:10041000CF92DF92EF92FF920F931F93CF93DF93D0
:10042000D82EC92E282F392FC9018C01C0E0D0E069
:10043000E62EFF24F801878161E00E94A103B70145
:100440000C2E02C0759567950A94E2F76170F80169
:1004500087810E94E00321960F5F1F4FC430D105B2
:1004600049F78D2D9C2D0E94B101DF91CF911F91F5
:100470000F91FF90EF90DF90CF9008951F93CF934F
:10048000DF93EC01162F8C81642F0E94E0038D8195
:100490008F3F19F060E00E94E0038F8584FF05C064
:1004A000CE01612F0E94D2010EC0612F70E084E066
:1004B000759567958A95E1F7CE010E940802CE01F5
:1004C000612F0E940802DF91CF911F91089541E0B2
:1004D0000E943E0281E090E0089540E00E943E02CA
:1004E0000895FC016089862F8460808B6C60CF0149
:1004F0000E946D020895DF93CF93CDB7DEB72897A2
:100500000FB6F894DEBF0FBECDBF9C01FE01319641
:10051000ABE3B1E088E00D9001928150E1F7F90181
:100520008389481710F0482F4150E42FF0E0EE0F78
:10053000FF1FEC0FFD1F8181680F6068C9010E94D9
:100540006D0228960FB6F894DEBF0FBECDBFCF91D7
:10055000DF91089561E00E946D0280ED97E00E94B6
:100560006C010895CF93DF93EC01423018F08F8532
:1005700088608F874B8B1C8A222329F0413019F425
:100580008F8584608F8780E593EC0E946C018C815D
:1005900060E00E94E0038E8160E00E94E0038D81B4
:1005A0008F3F19F060E00E94E0036F8564FD1DC07D
:1005B000CE0163E00E94080284E991E10E946C018F
:1005C000CE0163E00E94080284E991E10E946C017F
:1005D000CE0163E00E94080286E990E00E946C016F
:1005E000CE0162E00E94080216C06062CE010E9445
:1005F0006D0284E991E10E946C016F856062CE0119
:100600000E946D0286E990E00E946C016F85606235
:10061000CE010E946D026F856062CE010E946D0264
:1006200084E0888BCE010E947102CE010E94AA0252
:1006300082E0898BCE0166E00E946D02DF91CF914E
:1006400008956F927F928F92AF92CF92EF920F9315
:100650001F93DF93CF93CDB7DEB73C01162F842FC6
:10066000F301448325830683E782C086A1868286C0
:100670009D8593879E8594879F8595879889968782
:1006800061E00E94A103F30185818F3F19F061E0D1
:100690000E94A103F301868161E00E94A10311235E
:1006A00019F0F301178603C080E1F3018787C301C6
:1006B00060E141E020E00E94B202CF91DF911F9102
:1006C0000F91EF90CF90AF908F907F906F900895A3
:1006D0008F92AF92CF92EF920F931F93CF93DF93AE
:1006E000DC01362F542F722F102FAE2C8C2C13962A
:1006F0001C921E92129787E391E011969C938E9321
:1007000000D000D0EDB7FEB73196CDB7DEB7198275
:10071000118212821382CD0161E0432F2FEF052F4A
:10072000E72EC12E0E9421030F900F900F900F9083
:10073000DF91CF911F910F91EF90CF90AF908F905D
:100740000895CF93DF93482F50E0CA0186569F4FFC
:10075000FC0134914A575F4FFA018491882369F173
:1007600090E0880F991FFC01E859FF4FA591B491C3
:10077000FC01EE58FF4FC591D491662351F42FB779
:10078000F8948C91932F909589238C938881892359
:100790000BC0623061F42FB7F8948C91932F909531
:1007A00089238C938881832B88832FBF06C09FB7B2
:1007B000F8948C91832B8C939FBFDF91CF910895F8
:1007C000482F50E0CA0182559F4FFC012491CA0175
:1007D00086569F4FFC0194914A575F4FFA0134911E
:1007E000332309F440C0222351F1233071F0243027
:1007F00028F42130A1F0223011F514C02630B1F0D8
:100800002730C1F02430D9F404C0809180008F7764
:1008100003C0809180008F7D8093800010C084B5DC
:100820008F7702C084B58F7D84BD09C08091B000F0
:100830008F7703C08091B0008F7D8093B000E32F4D
:10084000F0E0EE0FFF1FEE58FF4FA591B4912FB7C8
:10085000F894662321F48C919095892302C08C91A1
:10086000892B8C932FBF0895EE0FFF1F0590F491F5
:08087000E02D0994F894FFCF7C
:10087800454E20434C41534553202D204F4355505E
:1008880041444F005465726D696E612032323A33CB
:10089800306873002020202020204E4F20504153E4
:1008A800415200000000006702CC00000040001424
:0408B80000540000E8
:00000001FF
