S113EE009C4F8C5F9B6E801E6E0D1F9D9D9D6E2082
S113EE10366E8138CDEE86CDEE86CDEE86CDEE868D
S113EE20CDEE86CDEE866E00016EFF056E00019D6F
S113EE309D6E00006EFF046E00009D9DCDEEBACD68
S113EE40EE77CDEED3CDEEB0CDEF62CDEE77CDEF54
S113EE50ACCDEE77CDEFF6CDEE77CDF040CDEEB084
S113EE60CDF11ACDEEB0CDEEBACDEE95CDEEBACD54
S113EE70EE95CDEE9520C5AE1BA61B4AA10026FB40
S113EE805AA30026F481AEFFA6FF4AA10026FB5A2E
S113EE90A30026F481CDEE86CDEE86CDEE86CDEEB2
S113EEA086CDEE86CDEE86CDEE86CDEE86CDEE8693
S113EEB0CDEE86CDEE86CDEE8681110113011100D3
S113EEC0130015011701170019011B011B001D0177
S113EED01F0181CDEEBACDEEB31A0010011201105C
S113EEE000120014011601160018011A01CDEEB328
S113EEF0CDEEBACDEEB31C011001120110001200C8
S113EF0014011601160018011A01CDEEB3CDEEBAA4
S113EF10CDEEB31E011001120110001200140116EF
S113EF2001160018011A01CDEEB3CDEEBACDEEB341
S113EF301C01100112011000120014011601160028
S113EF4018011A01CDEEB3CDEEBACDEEB31A00100E
S113EF500112011000120014011601160018011A02
S113EF600181CDEEBACDEEB310011A00CDEEB3118E
S113EF70011201CDEEB313011000CDEEB311001256
S113EF8000CDEEB313001401CDEEB315011601CD7F
S113EF90EEB317011600CDEEB317001801CDEEB392
S113EFA019011A01CDEEB31B011B0081CDEEBACDC0
S113EFB0EEB31A011C01CDEEB31B011801CDEEB363
S113EFC019011600CDEEB317001601CDEEB31701EB
S113EFD01401CDEEB315011200CDEEB313001000F1
S113EFE0CDEEB311001201CDEEB313011001CDEE3D
S113EFF0B311011D0181CDEEBACDEEB310011E0196
S113F000CDEEB311011201CDEEB313011000CDEE1C
S113F010B311001200CDEEB313001401CDEEB315FD
S113F020011601CDEEB317011600CDEEB31700188B
S113F03001CDEEB319011A01CDEEB31B011F0181FD
S113F040CDEEBACDEEB3100112011000120014017E
S113F0501601160018011A011A001C011E01CDEE3A
S113F060B3CDEEBACDEEB3100112011000120014AC
S113F070011601160018011A011A001C011E018153
S113F0801A01160110001E01811801140112011E3B
S113F09001CDEE771901150113011F011A011601A3
S113F0A010001C01CDEE771B01170111001D018119
S113F0B01600120010011E01CDEE77170013001187
S113F0C0011F011801140112011C01CDEE77190171
S113F0D0150113011D011A01160110001A00CDEECD
S113F0E0771B01170111001B008118011401120183
S113F0F01A00CDEE771901150113011B0016001239
S113F1000010011C01CDEE771700130011011D0141
S113F110811600120010011A0081CDEEBACDF080E4
S113F120CDEEADCDEEBACDF145CDEE77CDEEBACD87
S113F130F48ECDEEB3CDEEBACDF633CDEEADCDEE4D
S113F140BACDF11181CDF089CDF089CDF089CDF022
S113F15089CDF089CDF089CDF089CDF089CDF089C4
S113F160CDF089CDF089CDF089CDF089CDF089CD70
S113F170F089CDF089CDF089CDF089CDF089CDF03D
S113F18089CDF089CDF089CDF089CDF089CDF08994
S113F190CDF089CDF089CDF089CDF089CDF089CD40
S113F1A0F089CDF089CDF089CDF089CDF089CDF00D
S113F1B089CDF089CDF089CDF089CDF089CDF08964
S113F1C0CDF089CDF089CDF089CDF089CDF089CD10
S113F1D0F089CDF089CDF089CDF089CDF089CDF0DD
S113F1E089CDF089CDF089CDF089CDF089CDF08934
S113F1F0CDF089CDF089CDF089CDF089CDF089CDE0
S113F200F089CDF089CDF089CDF089CDF089CDF0AC
S113F21089CDF089CDF089CDF089CDF089CDF08903
S113F220CDF089CDF089CDF089CDF089CDF089CDAF
S113F230F089CDF089CDF089CDF089CDF089CDF07C
S113F24089CDF089CDF089CDF089CDF089CDF089D3
S113F250CDF089CDF089CDF089CDF089CDF089CD7F
S113F260F089CDF089CDF089CDF089CDF089CDF04C
S113F27089CDF089CDF089CDF089CDF089CDF089A3
S113F280CDF089CDF089CDF089CDF089CDF089CD4F
S113F290F089CDF089CDF089CDF089CDF089CDF01C
S113F2A089CDF089CDF089CDF089CDF089CDF08973
S113F2B0CDF089CDF089CDF089CDF089CDF089CD1F
S113F2C0F089CDF089CDF089CDF089CDF089CDF0EC
S113F2D089CDF089CDF089CDF089CDF089CDF08943
S113F2E0CDF089CDF089CDF089CDF089CDF089CDEF
S113F2F0F089CDF089CDF089CDF089CDF089CDF0BC
S113F30089CDF089CDF089CDF089CDF089CDF08912
S113F310CDF089CDF089CDF089CDF089CDF089CDBE
S113F320F089CDF089CDF089CDF089CDF089CDF08B
S113F33089CDF089CDF089CDF089CDF089CDF089E2
S113F340CDF089CDF089CDF089CDF089CDF089CD8E
S113F350F089CDF089CDF089CDF089CDF089CDF05B
S113F36089CDF089CDF089CDF089CDF089CDF089B2
S113F370CDF089CDF089CDF089CDF089CDF089CD5E
S113F380F089CDF089CDF089CDF089CDF089CDF02B
S113F39089CDF089CDF089CDF089CDF089CDF08982
S113F3A0CDF089CDF089CDF089CDF089CDF089CD2E
S113F3B0F089CDF089CDF089CDF089CDF089CDF0FB
S113F3C089CDF089CDF089CDF089CDF089CDF08952
S113F3D0CDF089CDF089CDF089CDF089CDF089CDFE
S113F3E0F089CDF089CDF089CDF089CDF089CDF0CB
S113F3F089CDF089CDF089CDF089CDF089CDF08922
S113F400CDF089CDF089CDF089CDF089CDF089CDCD
S113F410F089CDF089CDF089CDF089CDF089CDF09A
S113F42089CDF089CDF089CDF089CDF089CDF089F1
S113F430CDF089CDF089CDF089CDF089CDF089CD9D
S113F440F089CDF089CDF089CDF089CDF089CDF06A
S113F45089CDF089CDF089CDF089CDF089CDF089C1
S113F460CDF089CDF089CDF089CDF089CDF089CD6D
S113F470F089CDF089CDF089CDF089CDF089CDF03A
S113F48089CDF089CDF089CDF089CDF08981CDF099
S113F490B0CDF0B0CDF0B0CDF0B0CDF0B0CDF0B097
S113F4A0CDF0B0CDF0B0CDF0B0CDF0B0CDF0B0CD6A
S113F4B0F0B0CDF0B0CDF0B0CDF0B0CDF0B0CDF037
S113F4C0B0CDF0B0CDF0B0CDF0B0CDF0B0CDF0B067
S113F4D0CDF0B0CDF0B0CDF0B0CDF0B0CDF0B0CD3A
S113F4E0F0B0CDF0B0CDF0B0CDF0B0CDF0B0CDF007
S113F4F0B0CDF0B0CDF0B0CDF0B0CDF0B0CDF0B037
S113F500CDF0B0CDF0B0CDF0B0CDF0B0CDF0B0CD09
S113F510F0B0CDF0B0CDF0B0CDF0B0CDF0B0CDF0D6
S113F520B0CDF0B0CDF0B0CDF0B0CDF0B0CDF0B006
S113F530CDF0B0CDF0B0CDF0B0CDF0B0CDF0B0CDD9
S113F540F0B0CDF0B0CDF0B0CDF0B0CDF0B0CDF0A6
S113F550B0CDF0B0CDF0B0CDF0B0CDF0B0CDF0B0D6
S113F560CDF0B0CDF0B0CDF0B0CDF0B0CDF0B0CDA9
S113F570F0B0CDF0B0CDF0B0CDF0B0CDF0B0CDF076
S113F580B0CDF0B0CDF0B0CDF0B0CDF0B0CDF0B0A6
S113F590CDF0B0CDF0B0CDF0B0CDF0B0CDF0B0CD79
S113F5A0F0B0CDF0B0CDF0B0CDF0B0CDF0B0CDF046
S113F5B0B0CDF0B0CDF0B0CDF0B0CDF0B0CDF0B076
S113F5C0CDF0B0CDF0B0CDF0B0CDF0B0CDF0B0CD49
S113F5D0F0B0CDF0B0CDF0B0CDF0B0CDF0B0CDF016
S113F5E0B0CDF0B0CDF0B0CDF0B0CDF0B0CDF0B046
S113F5F0CDF0B0CDF0B0CDF0B0CDF0B0CDF0B0CD19
S113F600F0B0CDF0B0CDF0B0CDF0B0CDF0B0CDF0E5
S113F610B0CDF0B0CDF0B0CDF0B0CDF0B0CDF0B015
S113F620CDF0B0CDF0B0CDF0B0CDF0B0CDF0B0CDE8
S113F630F0B081CDF0EACDF0EACDF0EACDF0EACD3C
S113F640F0EACDF0EACDF0EACDF0EACDF0EACDF083
S113F650EACDF0EACDF0EACDF0EACDF0EACDF0EA79
S113F660CDF0EACDF0EACDF0EACDF0EACDF0EACD86
S113F670F0EACDF0EACDF0EACDF0EACDF0EACDF053
S113F680EACDF0EACDF0EACDF0EACDF0EACDF0EA49
S113F690CDF0EACDF0EACDF0EACDF0EACDF0EACD56
S113F6A0F0EACDF0EACDF0EACDF0EACDF0EACDF023
S113F6B0EACDF0EACDF0EACDF0EACDF0EACDF0EA19
S113F6C0CDF0EACDF0EACDF0EACDF0EACDF0EACD26
S113F6D0F0EACDF0EACDF0EACDF0EACDF0EACDF0F3
S113F6E0EACDF0EACDF0EACDF0EACDF0EACDF0EAE9
S113F6F0CDF0EACDF0EACDF0EACDF0EACDF0EACDF6
S113F700F0EACDF0EACDF0EACDF0EACDF0EACDF0C2
S113F710EACDF0EACDF0EACDF0EACDF0EACDF0EAB8
S113F720CDF0EACDF0EACDF0EACDF0EACDF0EACDC5
S113F730F0EACDF0EACDF0EACDF0EACDF0EACDF092
S113F740EACDF0EACDF0EACDF0EACDF0EACDF0EA88
S113F750CDF0EACDF0EACDF0EACDF0EACDF0EACD95
S113F760F0EACDF0EACDF0EACDF0EACDF0EACDF062
S113F770EACDF0EACDF0EACDF0EACDF0EACDF0EA58
S113F780CDF0EACDF0EACDF0EACDF0EACDF0EACD65
S113F790F0EACDF0EACDF0EACDF0EACDF0EACDF032
S113F7A0EACDF0EACDF0EACDF0EACDF0EACDF0EA28
S113F7B0CDF0EACDF0EACDF0EACDF0EACDF0EACD35
S113F7C0F0EACDF0EACDF0EACDF0EACDF0EACDF002
S113F7D0EACDF0EACDF0EA818181819D809D809D12
S10EF7E0809D809D809D809D809D8009
S107FFDEF7DBF7DD75
S109FFF2F7DFF7E1F7E37D
S109FFFAF7E5F7E7EE0055
S9030000FC
