S113EE009C4F8C5F9B6E801E6E0D1F9D9D9D6E2082
S113EE10366E8138CDEE74CDEE74CDEE74CDEE74D5
S113EE20CDEE74CDEE746E75206E80236E00249D3D
S113EE309D6EF0056EF0019A1F01CDEE7F1D011E3F
S113EE4001CDEE7F1B011C01CDEE7F19011A01CD0E
S113EE50EE7F1801CDEE7FCDEE7FCDEE7F1F011D3D
S113EE60011B011901CDEE7F1E011C011A011801BD
S113EE701B2020C4AEFFA6FF4A26FD5A26F881CDEA
S113EE80EE74CDEE74CDEE74CDEE74CDEE74CDEEA5
S113EE9074819D809D800801041801200219011FBE
S10FEEA020809D809D809D809D809D8031
S107FFD0EE92EE9427
S109FFF2EE96EEA4EEA25F
S109FFFAEEA6EEA8EE00E5
S9030000FC
