:100000000C9462000C948A000C948A000C948A0070
:100010000C948A000C948A000C948A000C948A0038
:100020000C948A000C948A000C948A000C948A0028
:100030000C948A000C948A000C948A000C948A0018
:100040000C94FA030C948A000C94EE000C943C017E
:100050000C948A000C948A000C948A000C948A00F8
:100060000C948A000C948A000000000024002700F1
:100070002A0000000000250028002B0000000000DE
:1000800023002600290004040404040404040202DA
:100090000202020203030303030301020408102007
:1000A0004080010204081020010204081020000012
:1000B0000007000201000003040600000000000029
:1000C0000000A80211241FBECFEFD8E0DEBFCDBFD5
:1000D00011E0A0E0B1E0E4EFFBE002C005900D927A
:1000E000A231B107D9F711E0A2E1B1E001C01D9240
:1000F000A53DB107E1F710E0C4ECD0E004C02297C1
:10010000FE010E94F405C23CD107C9F70E94EB032F
:100110000C94F8050C9400008091000161E020E44B
:1001200032E44FE050E00E94150560931201709395
:10013000130180931401909315018091000160E0F8
:1001400020E432E44FE050E00E9415056093160170
:100150007093170180931801909319012091120157
:10016000309113014091140150911501260F371F52
:10017000481F591F20931A0130931B0140931C0103
:1001800050931D0161E070E080E090E00E94D00596
:10019000BA0120931E0130931F01409320017093F8
:1001A00021018AEA91E0A9012AE030E00E94D70308
:1001B00068EE73E080E090E00E9442040895809130
:1001C000000160E00E94D6048AEA91E040E855E22E
:1001D00060E070E00E947701089508951F920F92E9
:1001E0000FB60F9211242F933F934F938F939F93AA
:1001F000EF93FF938091C00082FD1DC04091C60027
:1002000020916201309163012F5F3F4F2F73307057
:1002100080916401909165012817390771F0E09190
:100220006201F0916301EE5DFE4F40833093630104
:100230002093620102C08091C600FF91EF919F91CF
:100240008F914F913F912F910F900FBE0F901F9064
:100250001895E091B601F091B701E05CFF4F8191F4
:10026000919120813181821B930B8F739070892B28
:1002700011F00E94ED0008951F920F920FB60F9299
:1002800011242F933F938F939F93EF93FF9320918C
:10029000A6013091A7018091A8019091A90128178A
:1002A000390731F48091C1008F7D8093C10014C063
:1002B000E091A801F091A901EA59FE4F20818091B7
:1002C000A8019091A90101968F7390709093A90154
:1002D0008093A8012093C600FF91EF919F918F9189
:1002E0003F912F910F900FBE0F901F901895AF92D6
:1002F000BF92DF92EF92FF920F931F93CF93DF9302
:10030000EC017A018B01DD24403081EE580780E05A
:10031000680780E0780711F0DD24D39491E0A92EDE
:10032000B12CEC89FD89DD2069F0C50108A002C06F
:10033000880F991F0A94E2F7808360E079E08DE3EB
:1003400090E005C0108260E874E88EE190E0A801BA
:1003500097010E94D00521503040404050405695B2
:1003600047953795279580E12030380720F0DD202C
:1003700011F0DD24D6CFE889F9893083EA89FB8939
:10038000208319A2EE89FF89408121E030E0C90174
:100390000C8C02C0880F991F0A94E2F7482B408307
:1003A000EE89FF894081C9010D8C02C0880F991F19
:1003B0000A94E2F7482B4083EE89FF894081C90106
:1003C0000E8C02C0880F991F0A94E2F7482B4083D5
:1003D000EE89FF8980810F8C02C0220F331F0A949F
:1003E000E2F7209528232083DF91CF911F910F9171
:1003F000FF90EF90DF90BF90AF900895DC011C96C6
:10040000ED91FC911D97E05CFF4F2191319180812E
:100410009181281B390B2F733070C9010895DC01BD
:100420001C96ED91FC911D97E05CFF4F208131817E
:10043000E054F040DF01AE5BBF4F8D919C9111976E
:100440002817390719F42FEF3FEF07C08D919C91C2
:10045000E80FF91F8081282F30E0C9010895DC01E1
:100460001C96ED91FC911D97E05CFF4F208131813E
:10047000E054F040DF01AE5BBF4F8D919C9111972E
:100480002817390719F42FEF3FEF10C08D919C9179
:100490001197E80FF91F20818D919C91119701967A
:1004A0008F73907011969C938E9330E0C9010895DC
:1004B000DC0191968C919197882339F05496ED91B7
:1004C000FC915597808186FFF9CF91961C920895F3
:1004D000CF93DF93EC01EE85FF85E05CFF4F208139
:1004E0003181E054F0402F5F3F4F2F733070DF01B8
:1004F000AE5BBF4F8D919C91119728173907D1F3AF
:10050000E05CFF4F80819181E054F040E80FF91FDB
:100510006083EE85FF85E05CFF4F31832083EE89A9
:10052000FF89208181E090E00F8C02C0880F991F25
:100530000A94E2F7282B208381E089A3EC89FD89C6
:1005400080818064808381E090E0DF91CF91089585
:100550001092AD011092AC0188EE93E0A0E0B0E003
:100560008093AE019093AF01A093B001B093B1011D
:1005700086E091E09093AB018093AA0182E291E042
:100580009093B7018093B60186E691E09093B9010C
:100590008093B80185EC90E09093BB018093BA0101
:1005A00084EC90E09093BD018093BC0180EC90E0DE
:1005B0009093BF018093BE0181EC90E09093C101C4
:1005C0008093C00182EC90E09093C3018093C201BC
:1005D00086EC90E09093C5018093C40184E0809301
:1005E000C60183E08093C70187E08093C80185E05E
:1005F0008093C90181E08093CA010895CF92DF9270
:10060000EF92FF920F931F93CF93DF937C016B01C7
:100610008A01C0E0D0E00FC0D6016D916D01D70115
:10062000ED91FC910190F081E02DC7010995C80F73
:10063000D91F015010400115110571F7CE01DF914E
:10064000CF911F910F91FF90EF90DF90CF90089581
:10065000EF92FF920F931F938C01DC01ED91FC91BF
:100660000190F081E02D6DE009957C01D801ED91BC
:10067000FC910190F081E02DC8016AE009959C0190
:100680002E0D3F1DC9011F910F91FF90EF9008950E
:10069000CF93DF93EC016115710519F420E030E090
:1006A0000FC0DB010D900020E9F71197A61BB70BD7
:1006B000E881F9810280F381E02DAD0109959C016B
:1006C000C901DF91CF9108954F925F927F928F92EF
:1006D0009F92AF92BF92CF92DF92EF92FF920F93D1
:1006E0001F93DF93CF93CDB7DEB7A1970FB6F894E2
:1006F000DEBF0FBECDBF2C01742ECB01223008F41B
:100700002AE019A231E2C32ED12CCC0EDD1E822E9E
:100710009924AA24BB24672D752FA50194010E945A
:10072000D00579018A01C801B701A50194010E9491
:10073000B105472D461B0894C108D1084A3014F46E
:10074000405D01C0495CF6014083E114F1040105FC
:10075000110521F07E2C5F2DC801DDCFC201B6014D
:100760000E944803A1960FB6F894DEBF0FBECDBF1E
:10077000CF91DF911F910F91FF90EF90DF90CF907D
:10078000BF90AF909F908F907F905F904F90089513
:10079000DC012115310541F4ED91FC910190F081CE
:1007A000E02D642F099508950E9464030895EF9247
:1007B000FF920F931F937C010E94C8038C01C70115
:1007C0000E9428039C01200F311FC9011F910F9126
:1007D000FF90EF900895CF93DF930E949B040E94B7
:1007E000DF00C9E2D1E00E948C002097E1F30E9473
:1007F0002901F9CF1F920F920FB60F9211242F9358
:100800003F938F939F93AF93BF938091D00190912B
:10081000D101A091D201B091D3013091D4010196C0
:10082000A11DB11D232F2D5F2D3720F02D570196CF
:10083000A11DB11D2093D4018093D0019093D101CB
:10084000A093D201B093D3018091CC019091CD01BE
:10085000A091CE01B091CF010196A11DB11D809351
:10086000CC019093CD01A093CE01B093CF01BF9165
:10087000AF919F918F913F912F910F900FBE0F904D
:100880001F9018959B01AC017FB7F8948091CC0123
:100890009091CD01A091CE01B091CF0166B5A89BFA
:1008A00005C06F3F19F00196A11DB11D7FBFBA2F82
:1008B000A92F982F8827860F911DA11DB11D62E0D9
:1008C000880F991FAA1FBB1F6A95D1F7BC012DC0C5
:1008D000FFB7F8948091CC019091CD01A091CE0109
:1008E000B091CF01E6B5A89B05C0EF3F19F0019686
:1008F000A11DB11DFFBFBA2FA92F982F88278E0FDA
:10090000911DA11DB11DE2E0880F991FAA1FBB1FF9
:10091000EA95D1F7861B970B885E9340C8F2215069
:1009200030404040504068517C4F21153105410511
:10093000510571F60895789484B5826084BD84B5BC
:10094000816084BD85B5826085BD85B5816085BDCA
:10095000EEE6F0E0808181608083E1E8F0E01082E3
:10096000808182608083808181608083E0E8F0E024
:10097000808181608083E1EBF0E08081846080830E
:10098000E0EBF0E0808181608083EAE7F0E0808145
:1009900084608083808182608083808181608083A5
:1009A0008081806880831092C1000895CF93DF9387
:1009B000482F50E0CA0186569F4FFC0134914A5798
:1009C0005F4FFA018491882369F190E0880F991FA5
:1009D000FC01E859FF4FA591B491FC01EE58FF4F7F
:1009E000C591D491662351F42FB7F8948C91932F2D
:1009F000909589238C93888189230BC0623061F4A0
:100A00002FB7F8948C91932F909589238C9388819C
:100A1000832B88832FBF06C09FB7F8948C91832BBC
:100A20008C939FBFDF91CF9108958F929F92AF9249
:100A3000BF92CF92DF92EF92FF920F931F93CF93CB
:100A4000DF93A82FB0E0CD0186569F4FFC01849024
:100A5000AA57BF4FFD018491662311F4992401C068
:100A6000982C6FEFA62E6FEFB62E6FEFC62E6FE0AD
:100A7000D62EA222B322C422D522682F70E0660FA0
:100A8000771F64587F4FEE24FF248701FB01A59157
:100A9000B4910BC0EA14FB040C051D0509F44EC00B
:100AA0000894E11CF11C011D111D8C9188218915F0
:100AB00089F30CC0EA14FB040C051D0509F43EC0C3
:100AC0000894E11CF11C011D111D03C0FB01A5913F
:100AD000B4918C918821891569F720E030E040E0DD
:100AE00050E0FB01C591D4910FC0DA01C9018E0D10
:100AF0009F1DA01FB11F8A159B05AC05BD05F1F018
:100B00002F5F3F4F4F4F5F4F88818821891569F3D1
:100B1000CA01B90125E130E040E050E00E94B10592
:100B20009B01AC01205F3F4F4F4F5F4F84E05695D4
:100B30004795379527958A95D1F704C020E030E096
:100B400040E050E0B901CA01DF91CF911F910F91B0
:100B5000FF90EF90DF90CF90BF90AF909F908F90DD
:100B60000895629FD001739FF001829FE00DF11DF7
:100B7000649FE00DF11D929FF00D839FF00D749F17
:100B8000F00D659FF00D9927729FB00DE11DF91FC3
:100B9000639FB00DE11DF91FBD01CF011124089520
:100BA000A1E21A2EAA1BBB1BFD010DC0AA1FBB1F71
:100BB000EE1FFF1FA217B307E407F50720F0A21BE3
:100BC000B30BE40BF50B661F771F881F991F1A9450
:100BD00069F760957095809590959B01AC01BD017A
:100BE000CF010895EE0FFF1F0590F491E02D0994B9
:040BF000F894FFCFA7
:100BF4000700000000006802FE02FE012F020F023F
:020C0400580294
:00000001FF
