:100000000C9463000C948B000C948B000C948B006C
:100010000C948B000C948B000C948B000C948B0034
:100020000C948B000C948B000C948B000C948B0024
:100030000C948B000C948B000C948B000C948B0014
:100040000C944D050C948B000C9418010C946601D3
:100050000C948B000C948B000C948B000C948B00F4
:100060000C948B000C948B000000000024002700EF
:100070002A0000000000250028002B0000000000DE
:1000800023002600290004040404040404040202DA
:100090000202020203030303030301020408102007
:1000A0004080010204081020010204081020000012
:1000B0000007000201000003040600000000000029
:1000C00000008D00D20211241FBECFEFD8E0DEBFAA
:1000D000CDBF11E0A0E0B1E0EEECF5E102C005908B
:1000E0000D92AE34B107D9F712E0AEE4B1E001C031
:1000F0001D92A032B107E1F710E0C6ECD0E004C0D9
:100100002297FE010E94E10AC23CD107C9F70E9472
:100110003E050C94E50A0C940000CF92EF920F93E9
:100120008EE491E067E046E025E004E053E0E52E50
:1001300032E0C32E0E9446080F91EF90CF900895B1
:100140000F931F93809163010E94DA05AA2797FD00
:10015000A095BA2FBC01CD010E948309609365016F
:1001600070936601809367019093680120E030E00E
:1001700040EA50E40E94370A20E030E040E85AE3C9
:100180000E94370A6093690170936A0180936B0142
:1001900090936C0105EF11E0C80160E071E00E94EE
:1001A00041044091690150916A0160916B01709125
:1001B0006C01C80122E030E00E942B05C8010E94BA
:1001C00082020EE411E0C80160E041E00E9459079C
:1001D0004091690150916A0160916B0170916C01CD
:1001E000C80122E030E00E9428051F910F91089578
:1001F0000F931F938091630160E00E94FC050EE461
:1002000011E0C80160E142E020E00E949007C801CF
:1002100063E171E00E94410485EF91E040E855E21E
:1002200060E070E00E94A1011F910F910895089570
:100230001F920F920FB60F9211242F933F934F935B
:100240008F939F93EF93FF938091C00082FD1DC019
:100250004091C6002091AD013091AE012F5F3F4F1C
:100260002F7330708091AF019091B001281739073A
:1002700071F0E091AD01F091AE01E359FE4F408382
:100280003093AE012093AD0102C08091C600FF9172
:10029000EF919F918F914F913F912F910F900FBEB2
:1002A0000F901F901895E0910102F0910202E05C1E
:1002B000FF4F8191919120813181821B930B8F732C
:1002C0009070892B11F00E94170108951F920F92D0
:1002D0000FB60F9211242F933F938F939F93EF9319
:1002E000FF932091F1013091F2018091F3019091FF
:1002F000F4012817390731F48091C1008F7D809374
:10030000C10014C0E091F301F091F401EF54FE4FED
:1003100020818091F3019091F40101968F73907088
:100320009093F4018093F3012093C600FF91EF9125
:100330009F918F913F912F910F900FBE0F901F9023
:100340001895AF92BF92DF92EF92FF920F931F9397
:10035000CF93DF93EC017A018B01DD24403081EEF5
:10036000580780E0680780E0780711F0DD24D39417
:1003700091E0A92EB12CEC89FD89DD2069F0C50141
:1003800008A002C0880F991F0A94E2F7808360E0FA
:1003900079E08DE390E005C0108260E874E88EE1BA
:1003A00090E0A80197010E94BD0A215030404040D2
:1003B0005040569547953795279580E1203038076E
:1003C00020F0DD2011F0DD24D6CFE889F9893083D3
:1003D000EA89FB89208319A2EE89FF89408121E007
:1003E00030E0C9010C8C02C0880F991F0A94E2F713
:1003F000482B4083EE89FF894081C9010D8C02C0E2
:10040000880F991F0A94E2F7482B4083EE89FF89F1
:100410004081C9010E8C02C0880F991F0A94E2F72F
:10042000482B4083EE89FF8980810F8C02C0220F08
:10043000331F0A94E2F7209528232083DF91CF9180
:100440001F910F91FF90EF90DF90BF90AF900895B4
:10045000DC011C96ED91FC911D97E05CFF4F219112
:10046000319180819181281B390B2F733070C90124
:100470000895DC011C96ED91FC911D97E05CFF4F07
:1004800020813181E054F040DF01AE5BBF4F8D91A0
:100490009C9111972817390719F42FEF3FEF07C0E8
:1004A0008D919C91E80FF91F8081282F30E0C901C0
:1004B0000895DC011C96ED91FC911D97E05CFF4FC7
:1004C00020813181E054F040DF01AE5BBF4F8D9160
:1004D0009C9111972817390719F42FEF3FEF10C09F
:1004E0008D919C911197E80FF91F20818D919C911E
:1004F000119701968F73907011969C938E9330E0B4
:10050000C9010895DC0191968C919197882339F067
:100510005496ED91FC915597808186FFF9CF919685
:100520001C920895CF93DF93EC01EE85FF85E05C8C
:10053000FF4F20813181E054F0402F5F3F4F2F73F8
:100540003070DF01AE5BBF4F8D919C9111972817E2
:100550003907D1F3E05CFF4F80819181E054F04096
:10056000E80FF91F6083EE85FF85E05CFF4F318364
:100570002083EE89FF89208181E090E00F8C02C00A
:10058000880F991F0A94E2F7282B208381E089A322
:10059000EC89FD8980818064808381E090E0DF9137
:1005A000CF9108951092F8011092F70188EE93E030
:1005B000A0E0B0E08093F9019093FA01A093FB01D1
:1005C000B093FC0182E391E09093F6018093F501F2
:1005D0008DE691E0909302028093010281EB91E01D
:1005E000909304028093030285EC90E090930602BE
:1005F0008093050284EC90E09093080280930702B8
:1006000080EC90E090930A028093090281EC90E0E4
:1006100090930C0280930B0282EC90E090930E0278
:1006200080930D0286EC90E09093100280930F026D
:1006300084E08093110283E08093120287E080932C
:10064000130285E08093140281E0809315020895DF
:10065000CF92DF92EF92FF920F931F93CF93DF938E
:100660007C016B018A01C0E0D0E00FC0D6016D9122
:100670006D01D701ED91FC910190F081E02DC70152
:100680000995C80FD91F015010400115110571F7C8
:10069000CE01DF91CF911F910F91FF90EF90DF90EE
:1006A000CF900895EF92FF920F931F938C01DC017E
:1006B000ED91FC910190F081E02D6DE009957C01B8
:1006C000D801ED91FC910190F081E02DC8016AE024
:1006D00009959C012E0D3F1DC9011F910F91FF909F
:1006E000EF900895CF93DF93EC016115710519F434
:1006F00020E030E00FC0DB010D900020E9F71197FA
:10070000A61BB70BE881F9810280F381E02DAD01D2
:1007100009959C01C901DF91CF9108954F925F9295
:100720007F928F929F92AF92BF92CF92DF92EF9281
:10073000FF920F931F93DF93CF93CDB7DEB7A197AF
:100740000FB6F894DEBF0FBECDBF2C01742ECB01C7
:10075000223008F42AE019A231E2C32ED12CCC0EAB
:10076000DD1E822E9924AA24BB24672D752FA50196
:1007700094010E94BD0A79018A01C801B701A5014F
:1007800094010E949E0A472D461B0894C108D10877
:100790004A3014F4405D01C0495CF6014083E11425
:1007A000F1040105110521F07E2C5F2DC801DDCF7C
:1007B000C201B6010E947203A1960FB6F894DEBF83
:1007C0000FBECDBFCF91DF911F910F91FF90EF90A2
:1007D000DF90CF90BF90AF909F908F907F905F9071
:1007E0004F900895DC012115310541F4ED91FC9104
:1007F0000190F081E02D642F099508950E948E03E9
:100800000895CF92DF92EF92FF920F931F93CF93B1
:10081000DF93EC016A017B012115310541F4E88188
:10082000F9810190F081E02D642F09951FC02A30D5
:100830003105D1F477FF17C0E881F9810190F0818B
:10084000E02D6DE209958C0144275527BA014C191A
:100850005D096E097F09CE012AE00E948E0398018E
:10086000280F391F04C02AE00E948E039C01C90191
:10087000DF91CF911F910F91FF90EF90DF90CF907C
:1008800008950E94720308957F928F929F92AF9273
:10089000BF92CF92DF92EF92FF920F931F93CF936D
:1008A000DF934C017A018B01722ECB01BA01A801B2
:1008B00097010E949A0A882321F0C4016FE171E038
:1008C00021C0C0E0D0E057016801E894D7F8C60124
:1008D000B5012FEF3FEF4FE75FE70E949A0A8823A9
:1008E00051F4C601B5012FEF3FEF4FE75FE70E94DC
:1008F000E408181614F0C1E0D0E0219739F0C401E3
:1009000063E271E00E947203EC0193C0C801B70179
:100910002FEF3FEF4FE75FE40E94330A181654F0C1
:10092000C801B7012FEF3FEF4FE75FEC0E94E408EB
:10093000882324F4C40167E271E0E4CFC801B70161
:1009400020E030E040E050E00E94E40887FD03C072
:10095000C0E0D0E00EC0D401ED91FC910190F08197
:10096000E02DC4016DE20995EC0117FB109517F914
:10097000109520E030E040E05FE3DD240BC0CA01C9
:10098000B90120E030E040E251E40E94E8089B0118
:10099000AC01D394D71498F3C801B7010E94800822
:1009A0005B016C010E9455097B018C01C401B801F7
:1009B000A7012AE030E00E94F203C80FD91F772078
:1009C00039F0C4016BE271E00E947203C80FD91FB5
:1009D000C801B7010E9481099B01AC01C601B501A4
:1009E0000E947F0824C020E030E040E251E40E94F1
:1009F000370A7B018C010E9450095B016C01CC24F9
:100A0000B7FCC094DC2CC401B601A5012AE030E09B
:100A10000E940104C80FD91FC601B5010E948309B5
:100A20009B01AC01C801B7010E947F087A9477202E
:100A3000D1F6CE01DF91CF911F910F91FF90EF90F2
:100A4000DF90CF90BF90AF909F908F907F90089550
:100A50000E9444040895EF92FF920F931F937C012C
:100A60000E9444048C01C7010E945203080F191F01
:100A7000C8011F910F91FF90EF900895CF93DF93DE
:100A80000E949F050E94F800C3E5D1E00E94A000EB
:100A90002097E1F30E945301F9CF1F920F920FB6F6
:100AA0000F9211242F933F938F939F93AF93BF93F4
:100AB00080911B0290911C02A0911D02B0911E0218
:100AC00030911F020196A11DB11D232F2D5F2D37DF
:100AD00020F02D570196A11DB11D20931F02809378
:100AE0001B0290931C02A0931D02B0931E028091E2
:100AF000170290911802A0911902B0911A02019662
:100B0000A11DB11D8093170290931802A0931902A2
:100B1000B0931A02BF91AF919F918F913F912F9106
:100B20000F900FBE0F901F901895019739F0880F06
:100B3000991F880F991F02970197F1F708957894EC
:100B400084B5826084BD84B5816084BD85B58260D2
:100B500085BD85B5816085BDEEE6F0E08081816070
:100B60008083E1E8F0E01082808182608083808170
:100B700081608083E0E8F0E0808181608083E1EB48
:100B8000F0E0808184608083E0EBF0E08081816030
:100B90008083EAE7F0E080818460808380818260E6
:100BA00080838081816080838081806880831092CF
:100BB000C1000895982F8E3008F09E509770809154
:100BC0002D018295880F880F807C892B80937C0073
:100BD00080917A00806480937A0080917A0086FD0B
:100BE000FCCF2091780040917900942F80E030E094
:100BF000282B392BC9010895CF93DF93482F50E05C
:100C0000CA0186569F4FFC0134914A575F4FFA0143
:100C10008491882369F190E0880F991FFC01E859BD
:100C2000FF4FA591B491FC01EE58FF4FC591D491AF
:100C3000662351F42FB7F8948C91932F90958923C4
:100C40008C93888189230BC0623061F42FB7F894AC
:100C50008C91932F909589238C938881832B888303
:100C60002FBF06C09FB7F8948C91832B8C939FBFA6
:100C7000DF91CF910895482F50E0CA0182559F4FD0
:100C8000FC012491CA0186569F4FFC0194914A575A
:100C90005F4FFA013491332309F440C0222351F10C
:100CA000233071F0243028F42130A1F0223011F5E6
:100CB00014C02630B1F02730C1F02430D9F404C07C
:100CC000809180008F7703C0809180008F7D80931A
:100CD000800010C084B58F7702C084B58F7D84BD3D
:100CE00009C08091B0008F7703C08091B0008F7DE4
:100CF0008093B000E32FF0E0EE0FFF1FEE58FF4FA0
:100D0000A591B4912FB7F894662321F48C91909516
:100D1000892302C08C91892B8C932FBF08950F9348
:100D20001F938C01FC01868160E00E943B0681E0FC
:100D300090E00E949505F801868161E00E943B06E3
:100D400081E090E00E949505F801868160E00E94B4
:100D50003B0684E690E00E9495051F910F9108954F
:100D6000CF92DF92EF92FF920F931F93CF93DF9377
:100D7000D82EC92E282F392FC9018C01C0E0D0E010
:100D8000E62EFF24F801878161E00E94FC05B7018F
:100D90000C2E02C0759567950A94E2F76170F80110
:100DA00087810E943B0621960F5F1F4FC830D105F7
:100DB00049F78D2D9C2D0E948F06DF91CF911F91B9
:100DC0000F91FF90EF90DF90CF900895CF92DF9238
:100DD000EF92FF920F931F93CF93DF93D82EC92EDC
:100DE000282F392FC9018C01C0E0D0E0E62EFF2466
:100DF000F801878161E00E94FC05B7010C2E02C05A
:100E0000759567950A94E2F76170F80187810E94F1
:100E10003B0621960F5F1F4FC430D10549F78D2D3A
:100E20009C2D0E948F06DF91CF911F910F91FF9013
:100E3000EF90DF90CF9008951F93CF93DF93EC0155
:100E4000162F8C81642F0E943B068D818F3F19F0F5
:100E500060E00E943B068F8584FF05C0CE01612FB4
:100E60000E94B0060EC0612F70E084E07595679512
:100E70008A95E1F7CE010E94E606CE01612F0E941D
:100E8000E606DF91CF911F91089541E00E941C0773
:100E900081E090E0089540E00E941C070895FC0165
:100EA0006089862F8460808B6C60CF010E944B0725
:100EB0000895DF93CF93CDB7DEB728970FB6F89498
:100EC000DEBF0FBECDBF9C01FE013196A6E4B1E0AE
:100ED00088E00D9001928150E1F7F901838948176C
:100EE00010F0482F4150E42FF0E0EE0FFF1FEC0F01
:100EF000FD1F8181680F6068C9010E944B07289619
:100F00000FB6F894DEBF0FBECDBFCF91DF9108952D
:100F100061E00E944B0780ED97E00E9495050895DF
:100F2000CF93DF93EC01423018F08F8588608F8774
:100F30004B8B1C8A222329F0413019F48F85846061
:100F40008F8780E593EC0E9495058C8160E00E947C
:100F50003B068E8160E00E943B068D818F3F19F039
:100F600060E00E943B066F8564FD1DC0CE0163E01A
:100F70000E94E60684E991E10E949505CE0163E0B6
:100F80000E94E60684E991E10E949505CE0163E0A6
:100F90000E94E60686E990E00E949505CE0162E097
:100FA0000E94E60616C06062CE010E944B0784E9EB
:100FB00091E10E9495056F856062CE010E944B070A
:100FC00086E990E00E9495056F856062CE010E94DF
:100FD0004B076F856062CE010E944B0784E0888BCF
:100FE000CE010E944F07CE010E94880782E0898BC4
:100FF000CE0166E00E944B07DF91CF9108956F927A
:101000007F928F92AF92CF92EF920F931F93DF93C5
:10101000CF93CDB7DEB73C01162F842FF301448365
:1010200025830683E782C086A18682869D85938775
:101030009E8594879F8595879889968761E00E9411
:10104000FC05F30185818F3F19F061E00E94FC05EA
:10105000F301868161E00E94FC05112319F0F30180
:10106000178603C080E1F3018787C30160E141E097
:1010700020E00E949007CF91DF911F910F91EF9098
:10108000CF90AF908F907F906F9008958F92AF9296
:10109000CF92EF920F931F93CF93DF93DC01362F04
:1010A000542F722F102FAE2C8C2C13961C921E9244
:1010B000129782E491E011969C938E9300D000D019
:1010C000EDB7FEB73196CDB7DEB719821182128225
:1010D0001382CD0161E0432F2FEF052FE72EC12EA4
:1010E0000E94FF070F900F900F900F90DF91CF910C
:1010F0001F910F91EF90CF90AF908F90089550581F
:10110000BB27AA270ED075C166D130F06BD120F075
:1011100031F49F3F11F41EF45BC10EF4E095E7FB40
:1011200051C1E92F77D180F3BA176207730784079B
:10113000950718F071F49EF58FC10EF4E0950B2E13
:10114000BA2FA02D0B01B90190010C01CA01A00119
:101150001124FF27591B99F0593F50F4503E68F174
:101160001A16F040A22F232F342F4427585FF3CFB5
:10117000469537952795A795F0405395C9F77EF486
:101180001F16BA0B620B730B840BBAF09150A1F0CF
:10119000FF0FBB1F661F771F881FC2F70EC0BA0F55
:1011A000621F731F841F48F4879577956795B795DD
:1011B000F7959E3F08F0B3CF9395880F08F09927D5
:1011C000EE0F979587950895D9D008F481E008959A
:1011D0000CD00FC107D140F0FED030F021F45F3FBA
:1011E00019F0F0C0511139C1F3C014D198F399230B
:1011F000C9F35523B1F3951B550BBB27AA276217DB
:101200007307840738F09F5F5F4F220F331F441F1F
:10121000AA1FA9F333D00E2E3AF0E0E830D0915057
:101220005040E695001CCAF729D0FE2F27D0660F44
:10123000771F881FBB1F261737074807AB07B0E883
:1012400009F0BB0B802DBF01FF2793585F4F2AF099
:101250009E3F510568F0B6C000C15F3FECF3983E79
:10126000DCF3869577956795B795F7959F5FC9F7F6
:10127000880F911D9695879597F90895E1E0660F7F
:10128000771F881FBB1F621773078407BA0720F0F8
:10129000621B730B840BBA0BEE1F88F7E095089561
:1012A00004D06894B111D9C00895BCD088F09F577C
:1012B00090F0B92F9927B751A0F0D1F0660F771FA2
:1012C000881F991F1AF0BA95C9F712C0B13081F082
:1012D000C3D0B1E00895C0C0672F782F8827B85FCA
:1012E00039F0B93FCCF3869577956795B395D9F7E3
:1012F0003EF490958095709561957F4F8F4F9F4FED
:101300000895E89409C097FB3EF4909580957095F8
:1013100061957F4F8F4F9F4F9923A9F0F92F96E941
:10132000BB279395F695879577956795B795F111B6
:10133000F8CFFAF4BB0F11F460FF1BC06F5F7F4F53
:101340008F4F9F4F16C0882311F096E911C0772365
:1013500021F09EE8872F762F05C0662371F096E86E
:10136000862F70E060E02AF09A95660F771F881F3D
:10137000DAF7880F9695879597F90895990F0008E1
:10138000550FAA0BE0E8FEEF16161706E807F90757
:10139000C0F012161306E407F50798F0621B730BF2
:1013A000840B950B39F40A2661F0232B242B252B73
:1013B00021F408950A2609F4A140A6958FEF811D16
:1013C000811D089597F99F6780E870E060E00895B7
:1013D0009FEF80EC089500240A941616170618064D
:1013E0000906089500240A94121613061406050629
:1013F0000895092E0394000C11F4882352F0BB0FBA
:1014000040F4BF2B11F460FF04C06F5F7F4F8F4F1C
:101410009F4F089557FD9058440F551F59F05F3F57
:1014200071F04795880F97FB991F61F09F3F79F006
:1014300087950895121613061406551FF2CF469588
:10144000F1DF08C0161617061806991FF1CF86950A
:101450007105610508940895E894BB2766277727EE
:10146000CB0197F908958ADF08F48FEF08950BD028
:10147000C0CFB1DF28F0B6DF18F0952309F0A2CF76
:10148000A7CF1124EACFC6DFA0F3959FD1F3950F24
:1014900050E0551F629FF001729FBB27F00DB11DF8
:1014A000639FAA27F00DB11DAA1F649F6627B00D88
:1014B000A11D661F829F2227B00DA11D621F739F71
:1014C000B00DA11D621F839FA00D611D221F749F7F
:1014D0003327A00D611D231F849F600D211D822FC6
:1014E000762F6A2F11249F5750408AF0E1F088230D
:1014F0004AF0EE0FFF1FBB1F661F771F881F91501A
:101500005040A9F79E3F510570F05CCFA6CF5F3FDA
:10151000ECF3983EDCF3869577956795B795F7954C
:10152000E7959F5FC1F7FE2B880F911D96958795D4
:1015300097F9089523DF880B990B0895629FD001D6
:10154000739FF001829FE00DF11D649FE00DF11D7E
:10155000929FF00D839FF00D749FF00D659FF00D2D
:101560009927729FB00DE11DF91F639FB00DE11D1A
:10157000F91FBD01CF0111240895A1E21A2EAA1B63
:10158000BB1BFD010DC0AA1FBB1FEE1FFF1FA21733
:10159000B307E407F50720F0A21BB30BE40BF50B30
:1015A000661F771F881F991F1A9469F760957095B9
:1015B000809590959B01AC01BD01CF010895EE0F80
:0E15C000FF1F0590F491E02D0994F894FFCFE1
:1015CE00456C20766F6C74616A6520657320646566
:1015DE003A20004269656E76656E69646F21006E11
:1015EE00616E00696E66006F7666002E0001000067
:1015FE0000009202280328025902390282020000DA
:0E160E000000450728030000400014005400AF
:00000001FF
