S113EE009C4F8C5F9B6E801E6E0D1F9D9D9D6E2082
S113EE10366E8138CDEE4ECDEE4ECDEE4ECDEE4E6D
S113EE20CDEE4ECDEE4E6EF0056EF0011F01CDEE2F
S113EE30591E01CDEE59CDEE591D01CDEE591B01E0
S113EE401901CDEE591A011801CDEE5920DEAEFF9D
S113EE50A6FF4A26FD5A26F881CDEE4ECDEE4ECDC4
S113EE60EE4ECDEE4ECDEE4ECDEE4E819D809D808C
S10FEE709D809D809D809D809D809D80E4
S107FFD0EE6CEE6E73
S109FFF2EE70EE74EE72E5
S109FFFAEE76EE78EE0045
S9030000FC
