S113EE003F369C4F8C5F986E091F9D9D6E801E9DA2
S113EE109D6EFF056E31043F003F01CDEEA3A63881
S113EE20CDEE7DA60ECDEE7DA601CDEE7DA606CD62
S113EE30EE7DA640CDEE7DA60CCDEE7DA601CDEEF9
S113EE407DA60CCDEE7DA683CDEE7DAE15D6EEC1AE
S113EE50CDEE90AE14D6EEC1CDEE90AE1CD6EEC182
S113EE60CDEE90CDEEA3CDEEA3CDEEA3CDEEA3CD0E
S113EE70EEA3CDEEA3CDEEA3A601CDEE7D19001B2E
S113EE80001000B701CDEEB91100CDEEB919008123
S113EE9018001B001000B701CDEEB91100CDEEB97A
S113EEA0190081878B89A6FF4500EFAFFF6500003D
S113EEB026F94A26F3888A868187A6FF4A26FD8694
S113EEC08130313233343536373839505254554322
S113EED04546484C4E616367696A6C6F707273751E
S113EEE02E2C3F3D002001653A6E42644A769D8097
S113FFDEEEEEEEEEEEEEEEEEEEEEEEEEEEEEEEEE2F
S113FFEEEEEEEEEEEEEEEEEEEEEEEEEEEEEEEEEE1F
S105FFFEEE000F
S9030000FC
