S113EE009C4F8C5F9B6E801E6E0D1F9D9D9D6E2082
S113EE10366E8138CDEECBCDEECBCDEECBCDEECB79
S113EE20CDEECBCDEECB6EFF016EFF056EFF019DE7
S113EE309D6EFF006EFF046EFF009D9DCDEEFFCD25
S113EE40EF6CCDEEDACDEEDACDEEDACDEEFFCDF22B
S113EE50B5CDEEDACDEEDACDEEDACDEEFFCDEF6C58
S113EE60CDEEDACDEEDACDEEFFCDF2B5CDEEDACDE4
S113EE70EEDACDEEFFCDEF6CCDEEDACDEEFFCDF2D6
S113EE80B5CDEEDACDEEFFCDEF6CCDEEECCDEEFFF1
S113EE90CDF2B5CDEEECCDEEFFCDEF6CCDEEF2CDF7
S113EEA0EEFFCDF2B5CDEEF2CDEEFFCDEF6CCDEEB3
S113EEB0F5CDEEFFCDF2B5CDEEF52080AE1BA61B51
S113EEC04AA10026FB5AA30026F481AEFFA6FF4AFE
S113EED0A10026FB5AA30026F481CDEECBCDEECBC8
S113EEE0CDEECBCDEECBCDEECBCDEECBCDEECBCDB3
S113EEF0EECBCDEECBCDEECBCDEECBCDEECB8111AB
S113EF000113011100130015011701170019011B4A
S113EF10011B001D011F018112001A001C011E01AA
S113EF20CDEEBC1300120114011801CDEEBC130187
S113EF30150119011601CDEEBC17011B001D011F9F
S113EF400181100116001A001C011E01CDEEBC1136
S113EF500117001401CDEEBC150110001A01CDEE0D
S113EF60BC11001B011B001D011F0181CDEF18CD39
S113EF70EF18CDEF18CDEF18CDEF18CDEF18CDEF7A
S113EF8018CDEF18CDEF18CDEF18CDEF18CDEF1841
S113EF90CDEF18CDEF18CDEF18CDEF18CDEF18CD7C
S113EFA0EF18CDEF18CDEF18CDEF18CDEF18CDEF4A
S113EFB018CDEF18CDEF18CDEF18CDEF18CDEF1811
S113EFC0CDEF18CDEF18CDEF18CDEF18CDEF18CD4C
S113EFD0EF18CDEF18CDEF18CDEF18CDEF18CDEF1A
S113EFE018CDEF18CDEF18CDEF18CDEF18CDEF18E1
S113EFF0CDEF18CDEF18CDEF18CDEF18CDEF18CD1C
S113F000EF18CDEF18CDEF18CDEF18CDEF18CDEFE9
S113F01018CDEF18CDEF18CDEF18CDEF18CDEF18B0
S113F020CDEF18CDEF18CDEF18CDEF18CDEF18CDEB
S113F030EF18CDEF18CDEF18CDEF18CDEF18CDEFB9
S113F04018CDEF18CDEF18CDEF18CDEF18CDEF1880
S113F050CDEF18CDEF18CDEF18CDEF18CDEF18CDBB
S113F060EF18CDEF18CDEF18CDEF18CDEF18CDEF89
S113F07018CDEF18CDEF18CDEF18CDEF18CDEF1850
S113F080CDEF18CDEF18CDEF18CDEF18CDEF18CD8B
S113F090EF18CDEF18CDEF18CDEF18CDEF18CDEF59
S113F0A018CDEF18CDEF18CDEF18CDEF18CDEF1820
S113F0B0CDEF18CDEF18CDEF18CDEF18CDEF18CD5B
S113F0C0EF18CDEF18CDEF18CDEF18CDEF18CDEF29
S113F0D018CDEF18CDEF18CDEF18CDEF18CDEF18F0
S113F0E0CDEF18CDEF18CDEF18CDEF18CDEF18CD2B
S113F0F0EF18CDEF18CDEF18CDEF18CDEF18CDEFF9
S113F10018CDEF18CDEF18CDEF18CDEF18CDEF18BF
S113F110CDEF18CDEF18CDEF18CDEF18CDEF18CDFA
S113F120EF18CDEF18CDEF18CDEF18CDEF18CDEFC8
S113F13018CDEF18CDEF18CDEF18CDEF18CDEF188F
S113F140CDEF18CDEF18CDEF18CDEF18CDEF18CDCA
S113F150EF18CDEF18CDEF18CDEF18CDEF18CDEF98
S113F16018CDEF18CDEF18CDEF18CDEF18CDEF185F
S113F170CDEF18CDEF18CDEF18CDEF18CDEF18CD9A
S113F180EF18CDEF18CDEF18CDEF18CDEF18CDEF68
S113F19018CDEF18CDEF18CDEF18CDEF18CDEF182F
S113F1A0CDEF18CDEF18CDEF18CDEF18CDEF18CD6A
S113F1B0EF18CDEF18CDEF18CDEF18CDEF18CDEF38
S113F1C018CDEF18CDEF18CDEF18CDEF18CDEF18FF
S113F1D0CDEF18CDEF18CDEF18CDEF18CDEF18CD3A
S113F1E0EF18CDEF18CDEF18CDEF18CDEF18CDEF08
S113F1F018CDEF18CDEF18CDEF18CDEF18CDEF18CF
S113F200CDEF18CDEF18CDEF18CDEF18CDEF18CD09
S113F210EF18CDEF18CDEF18CDEF18CDEF18CDEFD7
S113F22018CDEF18CDEF18CDEF18CDEF18CDEF189E
S113F230CDEF18CDEF18CDEF18CDEF18CDEF18CDD9
S113F240EF18CDEF18CDEF18CDEF18CDEF18CDEFA7
S113F25018CDEF18CDEF18CDEF18CDEF18CDEF186E
S113F260CDEF18CDEF18CDEF18CDEF18CDEF18CDA9
S113F270EF18CDEF18CDEF18CDEF18CDEF18CDEF77
S113F28018CDEF18CDEF18CDEF18CDEF18CDEF183E
S113F290CDEF18CDEF18CDEF18CDEF18CDEF18CD79
S113F2A0EF18CDEF18CDEF18CDEF18CDEF18CDEF47
S113F2B018CDEF1881CDEF42CDEF42CDEF42CDEF27
S113F2C042CDEF42CDEF42CDEF42CDEF42CDEF4202
S113F2D0CDEF42CDEF42CDEF42CDEF42CDEF42CD67
S113F2E0EF42CDEF42CDEF42CDEF42CDEF42CDEF35
S113F2F042CDEF42CDEF42CDEF42CDEF42CDEF42D2
S113F300CDEF42CDEF42CDEF42CDEF42CDEF42CD36
S113F310EF42CDEF42CDEF42CDEF42CDEF42CDEF04
S113F32042CDEF42CDEF42CDEF42CDEF42CDEF42A1
S113F330CDEF42CDEF42CDEF42CDEF42CDEF42CD06
S113F340EF42CDEF42CDEF42CDEF42CDEF42CDEFD4
S113F35042CDEF42CDEF42CDEF42CDEF42CDEF4271
S113F360CDEF42CDEF42CDEF42CDEF42CDEF42CDD6
S113F370EF42CDEF42CDEF42CDEF42CDEF42CDEFA4
S113F38042CDEF42CDEF42CDEF42CDEF42CDEF4241
S113F390CDEF42CDEF42CDEF42CDEF42CDEF42CDA6
S113F3A0EF42CDEF42CDEF42CDEF42CDEF42CDEF74
S113F3B042CDEF42CDEF42CDEF42CDEF42CDEF4211
S113F3C0CDEF42CDEF42CDEF42CDEF42CDEF42CD76
S113F3D0EF42CDEF42CDEF42CDEF42CDEF42CDEF44
S113F3E042CDEF42CDEF42CDEF42CDEF42CDEF42E1
S113F3F0CDEF42CDEF42CDEF42CDEF42CDEF42CD46
S113F400EF42CDEF42CDEF42CDEF42CDEF42CDEF13
S113F41042CDEF42CDEF42CDEF42CDEF42CDEF42B0
S113F420CDEF42CDEF42CDEF42CDEF42CDEF42CD15
S113F430EF42CDEF42CDEF42CDEF42CDEF42CDEFE3
S113F44042CDEF42CDEF42CDEF42CDEF42CDEF4280
S113F450CDEF42CDEF42CDEF42CDEF42CDEF42CDE5
S113F460EF42CDEF42CDEF42CDEF42CDEF42CDEFB3
S113F47042CDEF42CDEF42CDEF42CDEF42CDEF4250
S113F480CDEF42CDEF42CDEF42CDEF42CDEF42CDB5
S113F490EF42CDEF42CDEF42CDEF42CDEF42CDEF83
S113F4A042CDEF42CDEF42CDEF42CDEF42CDEF4220
S113F4B0CDEF42CDEF42CDEF42CDEF42CDEF42CD85
S113F4C0EF42CDEF42CDEF42CDEF42CDEF42CDEF53
S113F4D042CDEF42CDEF42CDEF42CDEF42CDEF42F0
S113F4E0CDEF42CDEF42CDEF42CDEF42CDEF42CD55
S113F4F0EF42CDEF42CDEF42CDEF42CDEF42CDEF23
S113F50042CDEF42CDEF42CDEF42CDEF42CDEF42BF
S113F510CDEF42CDEF42CDEF42CDEF42CDEF42CD24
S113F520EF42CDEF42CDEF42CDEF42CDEF42CDEFF2
S113F53042CDEF42CDEF42CDEF42CDEF42CDEF428F
S113F540CDEF42CDEF42CDEF42CDEF42CDEF42CDF4
S113F550EF42CDEF42CDEF42CDEF42CDEF42CDEFC2
S113F56042CDEF42CDEF42CDEF42CDEF42CDEF425F
S113F570CDEF42CDEF42CDEF42CDEF42CDEF42CDC4
S113F580EF42CDEF42CDEF42CDEF42CDEF42CDEF92
S113F59042CDEF42CDEF42CDEF42CDEF42CDEF422F
S113F5A0CDEF42CDEF42CDEF42CDEF42CDEF42CD94
S113F5B0EF42CDEF42CDEF42CDEF42CDEF42CDEF62
S113F5C042CDEF42CDEF42CDEF42CDEF42CDEF42FF
S113F5D0CDEF42CDEF42CDEF42CDEF42CDEF42CD64
S113F5E0EF42CDEF42CDEF42CDEF42CDEF42CDEF32
S113F5F042CDEF42CDEF42CDEF42CDEF42819D802F
S111F6009D809D809D809D809D809D809D802D
S107FFDEF5FEF60032
S109FFF2F602F604F60617
S109FFFAF608F60AEE0011
S9030000FC
