S113EE009C4F8C5F9B6E801E6E0D1F9D9D9D6E2082
S113EE10366E8138CDEE53CDEE53CDEE53CDEE5359
S113EE20CDEE53CDEE536EFF016EFF056EFF019DD7
S113EE309D6EFF006EFF046EFF009D9DCDEECCCD58
S113EE40EE6220F8AE1BA61B4AA10026FB5AA300C3
S113EE5026F481AEFFA6FF4AA10026FB5AA3002692
S113EE60F481CDEE53CDEE53CDEE53CDEE53CDEE36
S113EE7053CDEE53CDEE53CDEE53CDEE53CDEE53F5
S113EE80CDEE53CDEE538111011301110013001582
S113EE90011701170019011B011B001D011F01CDE2
S113EEA0EE4412001A001C011E01CDEE44130012A0
S113EEB00114011801CDEE441301150119011601C5
S113EEC0CDEE4417011B001D011F0181CDEE87CD3E
S113EED0EE87CDEE87CDEE87CDEE87CDEE87CDEEF6
S113EEE087CDEE87CDEE87CDEE87CDEE87CDEE874D
S113EEF0CDEE87CDEE87CDEE87CDEE87CDEE87CDF7
S113EF00EE87CDEE87CDEE87CDEE87CDEE87CDEEC5
S113EF1087CDEE87CDEE87CDEE87CDEE87CDEE871C
S113EF20CDEE87CDEE87CDEE87CDEE87CDEE87CDC6
S113EF30EE87CDEE87CDEE87CDEE87CDEE87CDEE95
S113EF4087CDEE87CDEE87CDEE87CDEE87CDEE87EC
S113EF50CDEE87CDEE87CDEE87CDEE87CDEE87CD96
S113EF60EE87CDEE87CDEE87CDEE87CDEE87CDEE65
S113EF7087CDEE87CDEE87CDEE87CDEE87CDEE87BC
S113EF80CDEE87CDEE87CDEE87CDEE87CDEE87CD66
S113EF90EE87CDEE87CDEE87CDEE87CDEE87CDEE35
S113EFA087CDEE87CDEE87CDEE87CDEE87CDEE878C
S113EFB0CDEE87CDEE87CDEE87CDEE87CDEE87CD36
S113EFC0EE87CDEE87CDEE87CDEE87CDEE87CDEE05
S113EFD087CDEE87CDEE87CDEE87CDEE87CDEE875C
S113EFE0CDEE87CDEE87CDEE87CDEE87CDEE87CD06
S113EFF0EE87CDEE87CDEE87CDEE87CDEE87CDEED5
S113F00087CDEE87CDEE87CDEE87CDEE87CDEE872B
S113F010CDEE87CDEE87CDEE87CDEE87CDEE87CDD5
S113F020EE87CDEE87CDEE87CDEE87CDEE87CDEEA4
S113F03087CDEE87819D809D809D809D809D809D54
S108F040809D809D800D
S107FFDEF035F037CF
S109FFF2F039F03BF03D84
S109FFFAF03FF041EE00AF
S9030000FC
