S113EE009C4F8C5F9B6E801E6E0D1F9D9D9D6E2082
S113EE10366E8138CDEE5FCDEE5FCDEE5FCDEE5F29
S113EE20CDEE5FCDEE5F6EFF016EFF056EFF019DBF
S113EE309D6EFF006EFF046EFF009D9DCDEE93CD91
S113EE40EEE7CDEE89CDEE93CDF230CDEE8920EC18
S113EE50AE1BA61B4AA10026FB5AA30026F481AED2
S113EE60FFA6FF4AA10026FB5AA30026F481CDEE9B
S113EE705FCDEE5FCDEE5FCDEE5FCDEE5FCDEE5FAD
S113EE80CDEE5FCDEE5FCDEE5FCDEE5FCDEE5FCD2F
S113EE90EE5F811101130111001300150117011711
S113EEA00019011B011B001D011F01811A0116011C
S113EEB010001E01CDEE501B01170111001F01812E
S113EEC01801140112011E01CDEE50190115011390
S113EED0011F011A01160110001C01CDEE501B0187
S113EEE0170111001D0181CDEEACCDEEACCDEEAC21
S113EEF0CDEEACCDEEACCDEEACCDEEACCDEEACCD3E
S113EF00EEACCDEEACCDEEACCDEEACCDEEACCDEE0C
S113EF10ACCDEEACCDEEACCDEEACCDEEACCDEEAC3E
S113EF20CDEEACCDEEACCDEEACCDEEACCDEEACCD0D
S113EF30EEACCDEEACCDEEACCDEEACCDEEACCDEEDC
S113EF40ACCDEEACCDEEACCDEEACCDEEACCDEEAC0E
S113EF50CDEEACCDEEACCDEEACCDEEACCDEEACCDDD
S113EF60EEACCDEEACCDEEACCDEEACCDEEACCDEEAC
S113EF70ACCDEEACCDEEACCDEEACCDEEACCDEEACDE
S113EF80CDEEACCDEEACCDEEACCDEEACCDEEACCDAD
S113EF90EEACCDEEACCDEEACCDEEACCDEEACCDEE7C
S113EFA0ACCDEEACCDEEACCDEEACCDEEACCDEEACAE
S113EFB0CDEEACCDEEACCDEEACCDEEACCDEEACCD7D
S113EFC0EEACCDEEACCDEEACCDEEACCDEEACCDEE4C
S113EFD0ACCDEEACCDEEACCDEEACCDEEACCDEEAC7E
S113EFE0CDEEACCDEEACCDEEACCDEEACCDEEACCD4D
S113EFF0EEACCDEEACCDEEACCDEEACCDEEACCDEE1C
S113F000ACCDEEACCDEEACCDEEACCDEEACCDEEAC4D
S113F010CDEEACCDEEACCDEEACCDEEACCDEEACCD1C
S113F020EEACCDEEACCDEEACCDEEACCDEEACCDEEEB
S113F030ACCDEEACCDEEACCDEEACCDEEACCDEEAC1D
S113F040CDEEACCDEEACCDEEACCDEEACCDEEACCDEC
S113F050EEACCDEEACCDEEACCDEEACCDEEACCDEEBB
S113F060ACCDEEACCDEEACCDEEACCDEEACCDEEACED
S113F070CDEEACCDEEACCDEEACCDEEACCDEEACCDBC
S113F080EEACCDEEACCDEEACCDEEACCDEEACCDEE8B
S113F090ACCDEEACCDEEACCDEEACCDEEACCDEEACBD
S113F0A0CDEEACCDEEACCDEEACCDEEACCDEEACCD8C
S113F0B0EEACCDEEACCDEEACCDEEACCDEEACCDEE5B
S113F0C0ACCDEEACCDEEACCDEEACCDEEACCDEEAC8D
S113F0D0CDEEACCDEEACCDEEACCDEEACCDEEACCD5C
S113F0E0EEACCDEEACCDEEACCDEEACCDEEACCDEE2B
S113F0F0ACCDEEACCDEEACCDEEACCDEEACCDEEAC5D
S113F100CDEEACCDEEACCDEEACCDEEACCDEEACCD2B
S113F110EEACCDEEACCDEEACCDEEACCDEEACCDEEFA
S113F120ACCDEEACCDEEACCDEEACCDEEACCDEEAC2C
S113F130CDEEACCDEEACCDEEACCDEEACCDEEACCDFB
S113F140EEACCDEEACCDEEACCDEEACCDEEACCDEECA
S113F150ACCDEEACCDEEACCDEEACCDEEACCDEEACFC
S113F160CDEEACCDEEACCDEEACCDEEACCDEEACCDCB
S113F170EEACCDEEACCDEEACCDEEACCDEEACCDEE9A
S113F180ACCDEEACCDEEACCDEEACCDEEACCDEEACCC
S113F190CDEEACCDEEACCDEEACCDEEACCDEEACCD9B
S113F1A0EEACCDEEACCDEEACCDEEACCDEEACCDEE6A
S113F1B0ACCDEEACCDEEACCDEEACCDEEACCDEEAC9C
S113F1C0CDEEACCDEEACCDEEACCDEEACCDEEACCD6B
S113F1D0EEACCDEEACCDEEACCDEEACCDEEACCDEE3A
S113F1E0ACCDEEACCDEEACCDEEACCDEEACCDEEAC6C
S113F1F0CDEEACCDEEACCDEEACCDEEACCDEEACCD3B
S113F200EEACCDEEACCDEEACCDEEACCDEEACCDEE09
S113F210ACCDEEACCDEEACCDEEACCDEEACCDEEAC3B
S113F220CDEEACCDEEACCDEEACCDEEACCDEEAC8156
S113F230CDEEC0CDEEC0CDEEC0CDEEC0CDEEC0CD96
S113F240EEC0CDEEC0CDEEC0CDEEC0CDEEC0CDEE65
S113F250C0CDEEC0CDEEC0CDEEC0CDEEC0CDEEC083
S113F260CDEEC0CDEEC0CDEEC0CDEEC0CDEEC0CD66
S113F270EEC0CDEEC0CDEEC0CDEEC0CDEEC0CDEE35
S113F280C0CDEEC0CDEEC0CDEEC0CDEEC0CDEEC053
S113F290CDEEC0CDEEC0CDEEC0CDEEC0CDEEC0CD36
S113F2A0EEC0CDEEC0CDEEC0CDEEC0CDEEC0CDEE05
S113F2B0C0CDEEC0CDEEC0CDEEC0CDEEC0CDEEC023
S113F2C0CDEEC0CDEEC0CDEEC0CDEEC0CDEEC0CD06
S113F2D0EEC0CDEEC0CDEEC0CDEEC0CDEEC0CDEED5
S113F2E0C0CDEEC0CDEEC0CDEEC0CDEEC0CDEEC0F3
S113F2F0CDEEC0CDEEC0CDEEC0CDEEC0CDEEC0CDD6
S113F300EEC0CDEEC0CDEEC0CDEEC0CDEEC0CDEEA4
S113F310C0CDEEC0CDEEC0CDEEC0CDEEC0CDEEC0C2
S113F320CDEEC0CDEEC0CDEEC0CDEEC0CDEEC0CDA5
S113F330EEC0CDEEC0CDEEC0CDEEC0CDEEC0CDEE74
S113F340C0CDEEC0CDEEC0CDEEC0CDEEC0CDEEC092
S113F350CDEEC0CDEEC0CDEEC0CDEEC0CDEEC0CD75
S113F360EEC0CDEEC0CDEEC0CDEEC0CDEEC0CDEE44
S113F370C0CDEEC0CDEEC0CDEEC0CDEEC0CDEEC062
S113F380CDEEC0CDEEC0CDEEC0CDEEC0CDEEC0CD45
S113F390EEC0CDEEC0CDEEC0CDEEC0CDEEC0CDEE14
S113F3A0C0CDEEC0CDEEC0CDEEC0CDEEC0CDEEC032
S113F3B0CDEEC0CDEEC0CDEEC0CDEEC0CDEEC0CD15
S113F3C0EEC0CDEEC0CDEEC0CDEEC0CDEEC0CDEEE4
S113F3D0C0CDEEC0CDEEC0CDEEC0CDEEC0CDEEC002
S113F3E0CDEEC0CDEEC0CDEEC0CDEEC0CDEEC0CDE5
S113F3F0EEC0CDEEC0CDEEC0CDEEC0CDEEC0CDEEB4
S113F400C0CDEEC0CDEEC0CDEEC0CDEEC0CDEEC0D1
S113F410CDEEC0CDEEC0CDEEC0CDEEC0CDEEC0CDB4
S113F420EEC0CDEEC0CDEEC0CDEEC0CDEEC0CDEE83
S113F430C0CDEEC0CDEEC0CDEEC0CDEEC0CDEEC0A1
S113F440CDEEC0CDEEC0CDEEC0CDEEC0CDEEC0CD84
S113F450EEC0CDEEC0CDEEC0CDEEC0CDEEC0CDEE53
S113F460C0CDEEC0CDEEC0CDEEC0CDEEC0CDEEC071
S113F470CDEEC0CDEEC0CDEEC0CDEEC0CDEEC0CD54
S113F480EEC0CDEEC0CDEEC0CDEEC0CDEEC0CDEE23
S113F490C0CDEEC0CDEEC0CDEEC0CDEEC0CDEEC041
S113F4A0CDEEC0CDEEC0CDEEC0CDEEC0CDEEC0CD24
S113F4B0EEC0CDEEC0CDEEC0CDEEC0CDEEC0CDEEF3
S113F4C0C0CDEEC0CDEEC0CDEEC0CDEEC0CDEEC011
S113F4D0CDEEC0CDEEC0CDEEC0CDEEC0CDEEC0CDF4
S113F4E0EEC0CDEEC0CDEEC0CDEEC0CDEEC0CDEEC3
S113F4F0C0CDEEC0CDEEC0CDEEC0CDEEC0CDEEC0E1
S113F500CDEEC0CDEEC0CDEEC0CDEEC0CDEEC0CDC3
S113F510EEC0CDEEC0CDEEC0CDEEC0CDEEC0CDEE92
S113F520C0CDEEC0CDEEC0CDEEC0CDEEC0CDEEC0B0
S113F530CDEEC0CDEEC0CDEEC0CDEEC0CDEEC0CD93
S113F540EEC0CDEEC0CDEEC0CDEEC0CDEEC0CDEE62
S113F550C0CDEEC0CDEEC0CDEEC0CDEEC0CDEEC080
S113F560CDEEC0CDEEC0CDEEC0CDEEC0CDEEC0CD63
S113F570EEC0CDEEC0CDEEC0819D809D809D809D6E
S10CF580809D809D809D809D808A
S107FFDEF579F57B3D
S109FFF2F57DF57FF581A9
S109FFFAF583F585EE001D
S9030000FC
