S113EE009C4F8C5F9B6E801E6E0D1F9D9D9D6E2082
S113EE10366E8138CDEE8CCDEE8CCDEE8CCDEE8C75
S113EE20CDEE8CCDEE8C6EFF016EFF056EFF019D65
S113EE309D6EFF006EFF046EFF009D9DCDEEC0161B
S113EE4000120010011E01CDEE7D17001300110108
S113EE501F011801140112011C01CDEE7D190115C9
S113EE600113011D011A01160110001A00CDEE7DD7
S113EE701B01170111001B00CDEEB620BFAE1BA66F
S113EE801B4AA10026FB5AA30026F481AEFFA6FF6D
S113EE904AA10026FB5AA30026F481CDEE8CCDEEC8
S113EEA08CCDEE8CCDEE8CCDEE8CCDEE8CCDEE8C6F
S113EEB0CDEE8CCDEE8CCDEE8CCDEE8CCDEE8C816A
S113EEC01101130111001300150117011700190195
S113EED01B011B001D011F01811A01160110001ED8
S113EEE001CDEE7D1B01170111001F0181160012D7
S113EEF00010011E01CDEE7D1700130011011F014A
S113EF001801140112011C01CDEE7D190115011324
S113EF10011D011A01160110001A00CDEE7D81CDEC
S113EF20EED9CDEED9CDEED9CDEED9CDEED9CDEE0B
S113EF30D9CDEED9CDEED9CDEED9CDEED9CDEED910
S113EF40CDEED9CDEED9CDEED9CDEED9CDEED9CD0C
S113EF50EED9CDEED9CDEED9CDEED9CDEED9CDEEDB
S113EF60D9CDEED9CDEED9CDEED9CDEED9CDEED9E0
S113EF70CDEED9CDEED9CDEED9CDEED9CDEED9CDDC
S113EF80EED9CDEED9CDEED9CDEED9CDEED9CDEEAB
S113EF90D9CDEED9CDEED9CDEED9CDEED9CDEED9B0
S113EFA0CDEED9CDEED9CDEED9CDEED9CDEED9CDAC
S113EFB0EED9CDEED9CDEED9CDEED9CDEED9CDEE7B
S113EFC0D9CDEED9CDEED9CDEED9CDEED9CDEED980
S113EFD0CDEED9CDEED9CDEED9CDEED9CDEED9CD7C
S113EFE0EED9CDEED9CDEED9CDEED9CDEED9CDEE4B
S113EFF0D9CDEED9CDEED9CDEED9CDEED9CDEED950
S113F000CDEED9CDEED9CDEED9CDEED9CDEED9CD4B
S113F010EED9CDEED9CDEED9CDEED9CDEED9CDEE1A
S113F020D9CDEED9CDEED9CDEED9CDEED9CDEED91F
S113F030CDEED9CDEED9CDEED9CDEED9CDEED9CD1B
S113F040EED9CDEED9CDEED9CDEED9CDEED9CDEEEA
S113F050D9CDEED9CDEED9CDEED9CDEED9CDEED9EF
S113F060CDEED9CDEED9CDEED9CDEED9CDEED9CDEB
S113F070EED9CDEED9CDEED9CDEED9CDEED9CDEEBA
S113F080D9CDEED9CDEED9CDEED9CDEED9CDEED9BF
S113F090CDEED9CDEED9CDEED9CDEED9CDEED9CDBB
S113F0A0EED9CDEED9CDEED9CDEED9CDEED9CDEE8A
S113F0B0D9CDEED9CDEED9CDEED9CDEED9CDEED98F
S113F0C0CDEED9CDEED9CDEED9CDEED9CDEED9CD8B
S113F0D0EED9CDEED9CDEED9CDEED9CDEED9CDEE5A
S113F0E0D9CDEED9CDEED9CDEED9CDEED9CDEED95F
S113F0F0CDEED9CDEED9CDEED9CDEED9CDEED9CD5B
S113F100EED9CDEED9CDEED9CDEED9CDEED9CDEE29
S113F110D9CDEED9CDEED9CDEED9CDEED9CDEED92E
S113F120CDEED9CDEED9CDEED9CDEED9CDEED9CD2A
S113F130EED9CDEED9CDEED9CDEED9CDEED9CDEEF9
S113F140D9CDEED9CDEED9CDEED9CDEED9CDEED9FE
S113F150CDEED9CDEED9CDEED9CDEED9CDEED9CDFA
S113F160EED9CDEED9CDEED9CDEED9CDEED9CDEEC9
S113F170D9CDEED9CDEED9CDEED9CDEED9CDEED9CE
S113F180CDEED9CDEED9CDEED9CDEED9CDEED9CDCA
S113F190EED9CDEED9CDEED9CDEED9CDEED9CDEE99
S113F1A0D9CDEED9CDEED9CDEED9CDEED9CDEED99E
S113F1B0CDEED9CDEED9CDEED9CDEED9CDEED9CD9A
S113F1C0EED9CDEED9CDEED9CDEED9CDEED9CDEE69
S113F1D0D9CDEED9CDEED9CDEED9CDEED9CDEED96E
S113F1E0CDEED9CDEED9CDEED9CDEED9CDEED9CD6A
S113F1F0EED9CDEED9CDEED9CDEED9CDEED9CDEE39
S113F200D9CDEED9CDEED9CDEED9CDEED9CDEED93D
S113F210CDEED9CDEED9CDEED9CDEED9CDEED9CD39
S113F220EED9CDEED9CDEED9CDEED9CDEED9CDEE08
S113F230D9CDEED9CDEED9CDEED9CDEED9CDEED90D
S113F240CDEED9CDEED9CDEED9CDEED9CDEED9CD09
S113F250EED9CDEED9CDEED9CDEED9CDEED9CDEED8
S113F260D9CDEED9CDEED981CDEEEDCDEEEDCDEE0D
S113F270EDCDEEEDCDEEEDCDEEEDCDEEEDCDEEED55
S113F280CDEEEDCDEEEDCDEEEDCDEEEDCDEEEDCD65
S113F290EEEDCDEEEDCDEEEDCDEEEDCDEEEDCDEE34
S113F2A0EDCDEEEDCDEEEDCDEEEDCDEEEDCDEEED25
S113F2B0CDEEEDCDEEEDCDEEEDCDEEEDCDEEEDCD35
S113F2C0EEEDCDEEEDCDEEEDCDEEEDCDEEEDCDEE04
S113F2D0EDCDEEEDCDEEEDCDEEEDCDEEEDCDEEEDF5
S113F2E0CDEEEDCDEEEDCDEEEDCDEEEDCDEEEDCD05
S113F2F0EEEDCDEEEDCDEEEDCDEEEDCDEEEDCDEED4
S113F300EDCDEEEDCDEEEDCDEEEDCDEEEDCDEEEDC4
S113F310CDEEEDCDEEEDCDEEEDCDEEEDCDEEEDCDD4
S113F320EEEDCDEEEDCDEEEDCDEEEDCDEEEDCDEEA3
S113F330EDCDEEEDCDEEEDCDEEEDCDEEEDCDEEED94
S113F340CDEEEDCDEEEDCDEEEDCDEEEDCDEEEDCDA4
S113F350EEEDCDEEEDCDEEEDCDEEEDCDEEEDCDEE73
S113F360EDCDEEEDCDEEEDCDEEEDCDEEEDCDEEED64
S113F370CDEEEDCDEEEDCDEEEDCDEEEDCDEEEDCD74
S113F380EEEDCDEEEDCDEEEDCDEEEDCDEEEDCDEE43
S113F390EDCDEEEDCDEEEDCDEEEDCDEEEDCDEEED34
S113F3A0CDEEEDCDEEEDCDEEEDCDEEEDCDEEEDCD44
S113F3B0EEEDCDEEEDCDEEEDCDEEEDCDEEEDCDEE13
S113F3C0EDCDEEEDCDEEEDCDEEEDCDEEEDCDEEED04
S113F3D0CDEEEDCDEEEDCDEEEDCDEEEDCDEEEDCD14
S113F3E0EEEDCDEEEDCDEEEDCDEEEDCDEEEDCDEEE3
S113F3F0EDCDEEEDCDEEEDCDEEEDCDEEEDCDEEEDD4
S113F400CDEEEDCDEEEDCDEEEDCDEEEDCDEEEDCDE3
S113F410EEEDCDEEEDCDEEEDCDEEEDCDEEEDCDEEB2
S113F420EDCDEEEDCDEEEDCDEEEDCDEEEDCDEEEDA3
S113F430CDEEEDCDEEEDCDEEEDCDEEEDCDEEEDCDB3
S113F440EEEDCDEEEDCDEEEDCDEEEDCDEEEDCDEE82
S113F450EDCDEEEDCDEEEDCDEEEDCDEEEDCDEEED73
S113F460CDEEEDCDEEEDCDEEEDCDEEEDCDEEEDCD83
S113F470EEEDCDEEEDCDEEEDCDEEEDCDEEEDCDEE52
S113F480EDCDEEEDCDEEEDCDEEEDCDEEEDCDEEED43
S113F490CDEEEDCDEEEDCDEEEDCDEEEDCDEEEDCD53
S113F4A0EEEDCDEEEDCDEEEDCDEEEDCDEEEDCDEE22
S113F4B0EDCDEEEDCDEEEDCDEEEDCDEEEDCDEEED13
S113F4C0CDEEEDCDEEEDCDEEEDCDEEEDCDEEEDCD23
S113F4D0EEEDCDEEEDCDEEEDCDEEEDCDEEEDCDEEF2
S113F4E0EDCDEEEDCDEEEDCDEEEDCDEEEDCDEEEDE3
S113F4F0CDEEEDCDEEEDCDEEEDCDEEEDCDEEEDCDF3
S113F500EEEDCDEEEDCDEEEDCDEEEDCDEEEDCDEEC1
S113F510EDCDEEEDCDEEEDCDEEEDCDEEEDCDEEEDB2
S113F520CDEEEDCDEEEDCDEEEDCDEEEDCDEEEDCDC2
S113F530EEEDCDEEEDCDEEEDCDEEEDCDEEEDCDEE91
S113F540EDCDEEEDCDEEEDCDEEEDCDEEEDCDEEED82
S113F550CDEEEDCDEEEDCDEEEDCDEEEDCDEEEDCD92
S113F560EEEDCDEEEDCDEEEDCDEEEDCDEEEDCDEE61
S113F570EDCDEEEDCDEEEDCDEEEDCDEEEDCDEEED52
S113F580CDEEEDCDEEEDCDEEEDCDEEEDCDEEEDCD62
S113F590EEEDCDEEEDCDEEEDCDEEEDCDEEEDCDEE31
S113F5A0EDCDEEEDCDEEEDCDEEEDCDEEEDCDEEED22
S113F5B0819D809D809D809D809D809D809D809D5E
S104F5C080C6
S107FFDEF5B1F5B3CD
S109FFF2F5B5F5B7F5B901
S109FFFAF5BBF5BDEE00AD
S9030000FC
