S113EE009C4F8C5F9B6E801E6E0D1F9D9D9D6E2082
S113EE10366E8138CDEE56CDEE56CDEE56CDEE564D
S113EE20CDEE56CDEE566EFF016EFF056EFF019DD1
S113EE309D6EFF006EFF046EFF009D9DCDEE8ACD9A
S113EE40EF3DCDEE7720F5AE1BA61B4AA10026FBB5
S113EE505AA30026F481AEFFA6FF4AA10026FB5A5E
S113EE60A30026F481CDEE56CDEE56CDEE56CDEE72
S113EE7056CDEE56CDEE56CDEE56CDEE56CDEE56E3
S113EE80CDEE56CDEE56CDEE568111011301110093
S113EE90130015011701170019011B011B001D01A7
S113EEA01F01811A01160110001E018118011401AD
S113EEB012011E01CDEE471901150113011F011A9C
S113EEC001160110001C01CDEE471B0117011100B2
S113EED01D01811600120010011E01CDEE4717001E
S113EEE0130011011F011801140112011C01CDEEC0
S113EEF0471901150113011D011A01160110001A09
S113EF0000CDEE471B01170111001B0081180114ED
S113EF100112011A00CDEE471901150113011B005E
S113EF201600120010011C01CDEE4717001300114A
S113EF30011D01811600120010011A0081CDEF6538
S113EF40CDEE77CDEE8ACDF2AFCDEE77CDEE8ACD94
S113EF50F5F8CDEE77CDEE8ACDF79DCDEE77CDEEFB
S113EF608ACDF10A81CDEEA3CDEEA3CDEEA3CDEEF5
S113EF70A3CDEEA3CDEEA3CDEEA3CDEEA3CDEEA314
S113EF80CDEEA3CDEEA3CDEEA3CDEEA3CDEEA3CDDA
S113EF90EEA3CDEEA3CDEEA3CDEEA3CDEEA3CDEEA9
S113EFA0A3CDEEA3CDEEA3CDEEA3CDEEA3CDEEA3E4
S113EFB0CDEEA3CDEEA3CDEEA3CDEEA3CDEEA3CDAA
S113EFC0EEA3CDEEA3CDEEA3CDEEA3CDEEA3CDEE79
S113EFD0A3CDEEA3CDEEA3CDEEA3CDEEA3CDEEA3B4
S113EFE0CDEEA3CDEEA3CDEEA3CDEEA3CDEEA3CD7A
S113EFF0EEA3CDEEA3CDEEA3CDEEA3CDEEA3CDEE49
S113F000A3CDEEA3CDEEA3CDEEA3CDEEA3CDEEA383
S113F010CDEEA3CDEEA3CDEEA3CDEEA3CDEEA3CD49
S113F020EEA3CDEEA3CDEEA3CDEEA3CDEEA3CDEE18
S113F030A3CDEEA3CDEEA3CDEEA3CDEEA3CDEEA353
S113F040CDEEA3CDEEA3CDEEA3CDEEA3CDEEA3CD19
S113F050EEA3CDEEA3CDEEA3CDEEA3CDEEA3CDEEE8
S113F060A3CDEEA3CDEEA3CDEEA3CDEEA3CDEEA323
S113F070CDEEA3CDEEA3CDEEA3CDEEA3CDEEA3CDE9
S113F080EEA3CDEEA3CDEEA3CDEEA3CDEEA3CDEEB8
S113F090A3CDEEA3CDEEA3CDEEA3CDEEA3CDEEA3F3
S113F0A0CDEEA3CDEEA3CDEEA3CDEEA3CDEEA3CDB9
S113F0B0EEA3CDEEA3CDEEA3CDEEA3CDEEA3CDEE88
S113F0C0A3CDEEA3CDEEA3CDEEA3CDEEA3CDEEA3C3
S113F0D0CDEEA3CDEEA3CDEEA3CDEEA3CDEEA3CD89
S113F0E0EEA3CDEEA3CDEEA3CDEEA3CDEEA3CDEE58
S113F0F0A3CDEEA3CDEEA3CDEEA3CDEEA3CDEEA393
S113F100CDEEA3CDEEA3CDEEA381CDEF34CDEF3480
S113F110CDEF34CDEF34CDEF34CDEF34CDEF34CD6E
S113F120EF34CDEF34CDEF34CDEF34CDEF34CDEF3C
S113F13034CDEF34CDEF34CDEF34CDEF34CDEF34E7
S113F140CDEF34CDEF34CDEF34CDEF34CDEF34CD3E
S113F150EF34CDEF34CDEF34CDEF34CDEF34CDEF0C
S113F16034CDEF34CDEF34CDEF34CDEF34CDEF34B7
S113F170CDEF34CDEF34CDEF34CDEF34CDEF34CD0E
S113F180EF34CDEF34CDEF34CDEF34CDEF34CDEFDC
S113F19034CDEF34CDEF34CDEF34CDEF34CDEF3487
S113F1A0CDEF34CDEF34CDEF34CDEF34CDEF34CDDE
S113F1B0EF34CDEF34CDEF34CDEF34CDEF34CDEFAC
S113F1C034CDEF34CDEF34CDEF34CDEF34CDEF3457
S113F1D0CDEF34CDEF34CDEF34CDEF34CDEF34CDAE
S113F1E0EF34CDEF34CDEF34CDEF34CDEF34CDEF7C
S113F1F034CDEF34CDEF34CDEF34CDEF34CDEF3427
S113F200CDEF34CDEF34CDEF34CDEF34CDEF34CD7D
S113F210EF34CDEF34CDEF34CDEF34CDEF34CDEF4B
S113F22034CDEF34CDEF34CDEF34CDEF34CDEF34F6
S113F230CDEF34CDEF34CDEF34CDEF34CDEF34CD4D
S113F240EF34CDEF34CDEF34CDEF34CDEF34CDEF1B
S113F25034CDEF34CDEF34CDEF34CDEF34CDEF34C6
S113F260CDEF34CDEF34CDEF34CDEF34CDEF34CD1D
S113F270EF34CDEF34CDEF34CDEF34CDEF34CDEFEB
S113F28034CDEF34CDEF34CDEF34CDEF34CDEF3496
S113F290CDEF34CDEF34CDEF34CDEF34CDEF34CDED
S113F2A0EF34CDEF34CDEF34CDEF34CDEF3481CD29
S113F2B0EEACCDEEACCDEEACCDEEACCDEEACCDEE59
S113F2C0ACCDEEACCDEEACCDEEACCDEEACCDEEAC8B
S113F2D0CDEEACCDEEACCDEEACCDEEACCDEEACCD5A
S113F2E0EEACCDEEACCDEEACCDEEACCDEEACCDEE29
S113F2F0ACCDEEACCDEEACCDEEACCDEEACCDEEAC5B
S113F300CDEEACCDEEACCDEEACCDEEACCDEEACCD29
S113F310EEACCDEEACCDEEACCDEEACCDEEACCDEEF8
S113F320ACCDEEACCDEEACCDEEACCDEEACCDEEAC2A
S113F330CDEEACCDEEACCDEEACCDEEACCDEEACCDF9
S113F340EEACCDEEACCDEEACCDEEACCDEEACCDEEC8
S113F350ACCDEEACCDEEACCDEEACCDEEACCDEEACFA
S113F360CDEEACCDEEACCDEEACCDEEACCDEEACCDC9
S113F370EEACCDEEACCDEEACCDEEACCDEEACCDEE98
S113F380ACCDEEACCDEEACCDEEACCDEEACCDEEACCA
S113F390CDEEACCDEEACCDEEACCDEEACCDEEACCD99
S113F3A0EEACCDEEACCDEEACCDEEACCDEEACCDEE68
S113F3B0ACCDEEACCDEEACCDEEACCDEEACCDEEAC9A
S113F3C0CDEEACCDEEACCDEEACCDEEACCDEEACCD69
S113F3D0EEACCDEEACCDEEACCDEEACCDEEACCDEE38
S113F3E0ACCDEEACCDEEACCDEEACCDEEACCDEEAC6A
S113F3F0CDEEACCDEEACCDEEACCDEEACCDEEACCD39
S113F400EEACCDEEACCDEEACCDEEACCDEEACCDEE07
S113F410ACCDEEACCDEEACCDEEACCDEEACCDEEAC39
S113F420CDEEACCDEEACCDEEACCDEEACCDEEACCD08
S113F430EEACCDEEACCDEEACCDEEACCDEEACCDEED7
S113F440ACCDEEACCDEEACCDEEACCDEEACCDEEAC09
S113F450CDEEACCDEEACCDEEACCDEEACCDEEACCDD8
S113F460EEACCDEEACCDEEACCDEEACCDEEACCDEEA7
S113F470ACCDEEACCDEEACCDEEACCDEEACCDEEACD9
S113F480CDEEACCDEEACCDEEACCDEEACCDEEACCDA8
S113F490EEACCDEEACCDEEACCDEEACCDEEACCDEE77
S113F4A0ACCDEEACCDEEACCDEEACCDEEACCDEEACA9
S113F4B0CDEEACCDEEACCDEEACCDEEACCDEEACCD78
S113F4C0EEACCDEEACCDEEACCDEEACCDEEACCDEE47
S113F4D0ACCDEEACCDEEACCDEEACCDEEACCDEEAC79
S113F4E0CDEEACCDEEACCDEEACCDEEACCDEEACCD48
S113F4F0EEACCDEEACCDEEACCDEEACCDEEACCDEE17
S113F500ACCDEEACCDEEACCDEEACCDEEACCDEEAC48
S113F510CDEEACCDEEACCDEEACCDEEACCDEEACCD17
S113F520EEACCDEEACCDEEACCDEEACCDEEACCDEEE6
S113F530ACCDEEACCDEEACCDEEACCDEEACCDEEAC18
S113F540CDEEACCDEEACCDEEACCDEEACCDEEACCDE7
S113F550EEACCDEEACCDEEACCDEEACCDEEACCDEEB6
S113F560ACCDEEACCDEEACCDEEACCDEEACCDEEACE8
S113F570CDEEACCDEEACCDEEACCDEEACCDEEACCDB7
S113F580EEACCDEEACCDEEACCDEEACCDEEACCDEE86
S113F590ACCDEEACCDEEACCDEEACCDEEACCDEEACB8
S113F5A0CDEEACCDEEACCDEEACCDEEACCDEEACCD87
S113F5B0EEACCDEEACCDEEACCDEEACCDEEACCDEE56
S113F5C0ACCDEEACCDEEACCDEEACCDEEACCDEEAC88
S113F5D0CDEEACCDEEACCDEEACCDEEACCDEEACCD57
S113F5E0EEACCDEEACCDEEACCDEEACCDEEACCDEE26
S113F5F0ACCDEEACCDEEAC81CDEED3CDEED3CDEE35
S113F600D3CDEED3CDEED3CDEED3CDEED3CDEED35D
S113F610CDEED3CDEED3CDEED3CDEED3CDEED3CD53
S113F620EED3CDEED3CDEED3CDEED3CDEED3CDEE22
S113F630D3CDEED3CDEED3CDEED3CDEED3CDEED32D
S113F640CDEED3CDEED3CDEED3CDEED3CDEED3CD23
S113F650EED3CDEED3CDEED3CDEED3CDEED3CDEEF2
S113F660D3CDEED3CDEED3CDEED3CDEED3CDEED3FD
S113F670CDEED3CDEED3CDEED3CDEED3CDEED3CDF3
S113F680EED3CDEED3CDEED3CDEED3CDEED3CDEEC2
S113F690D3CDEED3CDEED3CDEED3CDEED3CDEED3CD
S113F6A0CDEED3CDEED3CDEED3CDEED3CDEED3CDC3
S113F6B0EED3CDEED3CDEED3CDEED3CDEED3CDEE92
S113F6C0D3CDEED3CDEED3CDEED3CDEED3CDEED39D
S113F6D0CDEED3CDEED3CDEED3CDEED3CDEED3CD93
S113F6E0EED3CDEED3CDEED3CDEED3CDEED3CDEE62
S113F6F0D3CDEED3CDEED3CDEED3CDEED3CDEED36D
S113F700CDEED3CDEED3CDEED3CDEED3CDEED3CD62
S113F710EED3CDEED3CDEED3CDEED3CDEED3CDEE31
S113F720D3CDEED3CDEED3CDEED3CDEED3CDEED33C
S113F730CDEED3CDEED3CDEED3CDEED3CDEED3CD32
S113F740EED3CDEED3CDEED3CDEED3CDEED3CDEE01
S113F750D3CDEED3CDEED3CDEED3CDEED3CDEED30C
S113F760CDEED3CDEED3CDEED3CDEED3CDEED3CD02
S113F770EED3CDEED3CDEED3CDEED3CDEED3CDEED1
S113F780D3CDEED3CDEED3CDEED3CDEED3CDEED3DC
S113F790CDEED3CDEED3CDEED3CDEED381CDEF0DE3
S113F7A0CDEF0DCDEF0DCDEF0DCDEF0DCDEF0DCD9B
S113F7B0EF0DCDEF0DCDEF0DCDEF0DCDEF0DCDEF69
S113F7C00DCDEF0DCDEF0DCDEF0DCDEF0DCDEF0D3B
S113F7D0CDEF0DCDEF0DCDEF0DCDEF0DCDEF0DCD6B
S113F7E0EF0DCDEF0DCDEF0DCDEF0DCDEF0DCDEF39
S113F7F00DCDEF0DCDEF0DCDEF0DCDEF0DCDEF0D0B
S113F800CDEF0DCDEF0DCDEF0DCDEF0DCDEF0DCD3A
S113F810EF0DCDEF0DCDEF0DCDEF0DCDEF0DCDEF08
S113F8200DCDEF0DCDEF0DCDEF0DCDEF0DCDEF0DDA
S113F830CDEF0DCDEF0DCDEF0DCDEF0DCDEF0DCD0A
S113F840EF0DCDEF0DCDEF0DCDEF0DCDEF0DCDEFD8
S113F8500DCDEF0DCDEF0DCDEF0DCDEF0DCDEF0DAA
S113F860CDEF0DCDEF0DCDEF0DCDEF0DCDEF0DCDDA
S113F870EF0DCDEF0DCDEF0DCDEF0DCDEF0DCDEFA8
S113F8800DCDEF0DCDEF0DCDEF0DCDEF0DCDEF0D7A
S113F890CDEF0DCDEF0DCDEF0DCDEF0DCDEF0DCDAA
S113F8A0EF0DCDEF0DCDEF0DCDEF0DCDEF0DCDEF78
S113F8B00DCDEF0DCDEF0DCDEF0DCDEF0DCDEF0D4A
S113F8C0CDEF0DCDEF0DCDEF0DCDEF0DCDEF0DCD7A
S113F8D0EF0DCDEF0DCDEF0DCDEF0DCDEF0DCDEF48
S113F8E00DCDEF0DCDEF0DCDEF0DCDEF0DCDEF0D1A
S113F8F0CDEF0DCDEF0DCDEF0DCDEF0DCDEF0DCD4A
S113F900EF0DCDEF0DCDEF0DCDEF0DCDEF0DCDEF17
S113F9100DCDEF0DCDEF0DCDEF0DCDEF0DCDEF0DE9
S113F920CDEF0DCDEF0DCDEF0DCDEF0DCDEF0DCD19
S113F930EF0DCDEF0DCDEF0DCDEF0DCDEF0DCDEFE7
S113F9400D819D809D809D809D809D809D809D805A
S105F9509D8094
S107FFDEF942F944A3
S109FFF2F946F948F94A42
S109FFFAF94CF94EEE0083
S9030000FC
