S113EE003F369C4F8C5F986E091F9D9D6E801E9DA2
S113EE109D6EFF056E31043F003F01CDEFBEA63865
S113EE20CDEF98A60ECDEF98A601CDEF98A606CD0E
S113EE30EF98A640CDEF98A60CCDEF98A601CDEFA4
S113EE4098A60CCDEF98CDEF98AE12D6EFDCCDEFAF
S113EE50ABAE14D6EFDCCDEFABAE2DD6EFDCCDEF01
S113EE60ABAE1BD6EFDCCDEFABAE14D6EFDCCDEF03
S113EE70ABAE1CD6EFDCCDEFABAE14D6EFDCCDEFF2
S113EE80ABAE24D6EFDCCDEFABAE01D6EFDCCDEFED
S113EE90ABAE27D6EFDCCDEFABA6C0CDEF98AE126C
S113EEA0D6EFDCCDEFABAE14D6EFDCCDEFABAE2DB1
S113EEB0D6EFDCCDEFABAE1BD6EFDCCDEFABAE14B3
S113EEC0D6EFDCCDEFABAE1CD6EFDCCDEFABAE14A2
S113EED0D6EFDCCDEFABAE24D6EFDCCDEFABAE029C
S113EEE0D6EFDCCDEFABAE27D6EFDCCDEFABA694FF
S113EEF0CDEF98AE12D6EFDCCDEFABAE14D6EFDC8F
S113EF00CDEFABAE2DD6EFDCCDEFABAE1BD6EFDC49
S113EF10CDEFABAE14D6EFDCCDEFABAE1CD6EFDC51
S113EF20CDEFABAE14D6EFDCCDEFABAE24D6EFDC39
S113EF30CDEFABAE03D6EFDCCDEFABAE27D6EFDC37
S113EF40CDEFABA6D4CDEF98AE12D6EFDCCDEFABC0
S113EF50AE14D6EFDCCDEFABAE2DD6EFDCCDEFAB00
S113EF60AE1BD6EFDCCDEFABAE14D6EFDCCDEFAB02
S113EF70AE1CD6EFDCCDEFABAE14D6EFDCCDEFABF1
S113EF80AE24D6EFDCCDEFABAE04D6EFDCCDEFABE9
S113EF90AE27D6EFDCCDEFAB19001B001000B70194
S113EFA0CDEFD41100CDEFD419008118001B00104F
S113EFB000B701CDEFD41100CDEFD4190081878BB8
S113EFC089A6FF4500EFAFFF65000026F94A26F346
S113EFD0888A868187A6FF4A26FD868130313233AE
S113EFE034353637383950525455434546484C4EDB
S113EFF0616367696A6C6F707273752E2C3F3D0094
S10FF0002001653A6E42644A766D9D80E2
S113FFDEF00AF00AF00AF00AF00AF00AF00AF00A3F
S113FFEEF00AF00AF00AF00AF00AF00AF00AF00A2F
S105FFFEEE000F
S9030000FC
